:100000000C9462000C948A000C948A000C948A0070
:100010000C948A000C948A000C948A000C948A0038
:100020000C948A000C948A000C948A000C94460666
:100030000C9472060C948A000C948A000C948A002A
:100040000C94FC050C949B060C94CA050C94A40516
:100050000C948A000C948A000C948A000C948A00F8
:100060000C948A000C948A000000000024002700F1
:100070002A0000000000250028002B0000000000DE
:1000800023002600290004040404040404040202DA
:100090000202020203030303030301020408102007
:1000A0004080010204081020010204081020000012
:1000B0000008000201000003040700000000000027
:1000C0000000020711241FBECFEFD8E0DEBFCDBF76
:1000D00011E0A0E0B1E0ECEFFAE202C005900D9271
:1000E000A439B107D9F725E0A4E9B1E001C01D9218
:1000F000AE34B207E1F710E0C2E6D0E004C02197C9
:10010000FE010E947615C136D107C9F70E94420749
:100110000C947C150C940000FC01DC01169690E018
:1001200020E030E040E060E05AE0AE17BF07D9F0D1
:10013000819170ED780F7A3030F4659F800D112435
:10014000682F6053F2CF211106C09111EECF462FD8
:1001500021E060E0EACF911103C0922F362FF9CF52
:10016000292F91E0E2CFE0E1F7E24E9FC0014F9FDF
:10017000900D112424E6329F800D911D1124680FEB
:10018000792F711D072E000C880B990B0895089587
:10019000AF92BF92CF92DF92EF92FF920F931F9395
:1001A000CF93DF936C017B018B01040F151FEB01D3
:1001B0005E01AE18BF08C017D10759F06991D6018A
:1001C000ED91FC910190F081E02DC6010995892BFC
:1001D00079F7C501DF91CF911F910F91FF90EF90BB
:1001E000DF90CF90BF90AF900895FC01538D448D68
:1001F000252F30E0842F90E0821B930B541710F0D2
:10020000CF96089501970895FC01918D828D9817DE
:1002100061F0A28DAE0FBF2FB11D5D968C91928DB6
:100220009F5F9F73928F90E008958FEF9FEF0895E7
:10023000FC01918D828D981731F0828DE80FF11DB0
:10024000858D90E008958FEF9FEF0895FC01918DCB
:10025000228D892F90E0805C9F4F821B91098F73C4
:100260009927089587E294E00E94260121E0892BD6
:1002700009F420E0822F089580E090E0892B29F096
:100280000E94320181110C9400000895FC01A48D9C
:10029000A80FB92FB11DA35ABF4F2C91848D90E0A8
:1002A00001968F739927848FA689B7892C93A0898B
:1002B000B1898C91837080648C93938D848D981315
:1002C00006C00288F389E02D80818F7D80830895A8
:1002D000EF92FF920F931F93CF93DF93EC0181E096
:1002E000888F9B8D8C8D98131AC0E889F98980813D
:1002F00085FF15C09FB7F894EE89FF896083E88970
:10030000F98980818370806480839FBF81E090E061
:10031000DF91CF911F910F91FF90EF900895F62EEE
:100320000B8D10E00F5F1F4F0F731127E02E8C8D88
:100330008E110CC00FB607FCFACFE889F9898081CD
:1003400085FFF5CFCE010E944601F1CFEB8DEC0F7A
:10035000FD2FF11DE35AFF4FF0829FB7F8940B8FEA
:10036000EA89FB8980818062CFCFCF93DF93EC0154
:10037000888D8823B9F0AA89BB89E889F9898C918D
:1003800085FD03C0808186FD0DC00FB607FCF7CF49
:100390008C9185FFF2CF808185FFEDCFCE010E9449
:1003A0004601E9CFDF91CF910895833081F028F4A1
:1003B000813099F08230A9F008958730A9F0883013
:1003C000C9F08430B1F4809180008F7D03C08091AA
:1003D00080008F7780938000089584B58F7784BDE7
:1003E000089584B58F7DFBCF8091B0008F77809387
:1003F000B00008958091B0008F7DF9CFCF93DF9347
:10040000E1EBF0E08491EDE9F0E0D491E9E8F0E08F
:10041000C491CC23A1F081110E94D501EC2FF0E012
:10042000EE0FFF1FE458FF4FA591B491EC91ED231F
:1004300081E090E009F480E0DF91CF91089580E0C1
:1004400090E0FACF1F93CF93DF93282F30E0F9018C
:10045000E255FF4F8491F901E656FF4FD491F9011F
:10046000EA57FF4FC491CC23A9F0162F81110E94A7
:10047000D501EC2FF0E0EE0FFF1FEE58FF4FA591D6
:10048000B4918FB7F894EC91111108C0D095DE2388
:10049000DC938FBFDF91CF911F910895DE2BF8CFB2
:1004A000CF93DF9390E0FC01E656FF4F24918A57EB
:1004B0009F4FFC0184918823D1F090E0880F991F11
:1004C000FC01E859FF4FA591B491FC01EE58FF4F94
:1004D000C591D49161110EC09FB7F8948C91E22F11
:1004E000E0958E238C932881E223E8839FBFDF91E0
:1004F000CF9108958FB7F894EC91E22BEC938FBFD6
:10050000F6CF3FB7F8948091950190919601A09114
:100510009701B091980126B5A89B05C02F3F19F00F
:100520000196A11DB11D3FBFBA2FA92F982F882773
:10053000BC01CD01620F711D811D911D42E0660F4E
:10054000771F881F991F4A95D1F708958F929F9220
:10055000AF92BF92CF92DF92EF92FF924B015C017C
:100560000E9481026B017C010E9481026C197D094D
:100570008E099F09683E734081059105A8F328EE16
:10058000C20E23E0D21EE11CF11C8A9489288A281D
:100590008B2829F0812C912C54018394E5CFFF9076
:1005A000EF90DF90CF90BF90AF909F908F90089585
:1005B000FC01A281B3818081918124813581820FE8
:1005C000931FA817B90728F4CD010196938382835E
:1005D0006C930895FC01A281B38180819181248173
:1005E0003581820F931FA817B90728F4CD01019612
:1005F000938382836C930895CF93DF93EC01603CE7
:1006000049F46BED0E94EA026CEDCE01DF91CF91CF
:100610000C94EA026B3D21F40E94EA026DEDF5CFE5
:10062000613C99F76BED0E94EA026EEDEECF8627F2
:10063000082E8295807F8025092E982F82958F70B5
:100640000826869598278927880F880F880F802588
:100650000895FC01A681B7819D012F5F3F4F8481E2
:10066000958140855185840F951F2817390750F4CF
:10067000378326836C930680F781E02D108281E01A
:1006800090E0089590E080E00895DC01AF5FBE4FF8
:10069000ED91FC9111972191AC0141505F4FE4170E
:1006A000F50769F0ED93FC933FB7F894FC01ED5F1B
:1006B000FE4F9081915090833FBF822F08958D937C
:1006C0009C93F2CF089590E080E00895CF93DF935C
:1006D000EC0190E080E00E94E3128883CE01DF917C
:1006E000CF910895CF92DF92EF92FF920F931F93D5
:1006F000CF93DF9300D000D0CDB7DEB7880F880F3F
:100700006E0195E0C90ED11C8E010F5F1F4FE82EC0
:10071000F12CE01AF10AC701800F911F0E94E31229
:10072000F80181938F01EC15FD05A9F769817A81A4
:100730008B819C810F900F900F900F90DF91CF9144
:100740001F910F91FF90EF90DF90CF900895FB01E4
:1007500001900020E9F73197AF01461B570B0C942D
:10076000C8008F929F92AF92BF92EF92FF920F9329
:100770001F93CF93DF93CDB7DEB7A1970FB6F89451
:10078000DEBF0FBECDBF7C01FA01CB0119A2223022
:1007900008F42AE08E010F5D1F4F822E912CB12CA0
:1007A000A12CBF01A50194010E943515F901CA01D0
:1007B0006A300CF5605DD8016E938D01232B242BDC
:1007C000252B79F790E080E0109721F0BD01C7015B
:1007D0000E94A703A1960FB6F894DEBF0FBECDBF4F
:1007E000DF91CF911F910F91FF90EF90BF90AF904D
:1007F0009F908F900895695CDECFCF93DF9360E088
:1008000085E00E94220260E084E00E94220261E012
:1008100070E080E090E00E94A602C9EED3E00E9462
:10082000FE01892BB1F12197F9F460E271E087E2D2
:1008300094E00E94A7032AE048EE53E060E070E0F5
:1008400087E294E00E94B10360E571E087E294E002
:100850000E94A70369E571E087E294E00E94A70384
:1008600081E090E00E947C1561E085E00E94220218
:1008700061E070E080E090E00E94A60260E085E028
:100880000E94220261E070E080E090E00E94A602F7
:10089000C6CFDF91CF9108958F929F92AF92BF9272
:1008A000CF92DF92EF92FF920F931F93CF93DF933C
:1008B000D82FC92F61E085E00E94220261E070E03C
:1008C00080E090E00E94A6020E94FD0361E084E0C7
:1008D0000E94220262E070E080E090E00E94A602A6
:1008E00060E084E00E94220262E070E080E090E03C
:1008F0000E94A60261E085E00E94220261E070E0B1
:1009000080E090E00E94A602ED2EFC2E10E000E0B8
:1009100058016894A3F824E0C22ED12CC8E060E00E
:1009200084E00E94220262E070E080E090E00E9499
:10093000A602D0E0C5018C239D2361E0892B09F438
:1009400060E086E00E942202D595C79561E084E0D0
:100950000E94220262E070E080E090E00E94A60225
:1009600081E0C81AD108D9F60E94FD0360E085E055
:100970000E94220261E070E080E090E00E94A60206
:10098000C0E2D0E0812C912C540160E084E00E9410
:100990002202880C991CAA1CBB1C0E94FE01092E75
:1009A000000CAA0BBB0B882A992AAA2ABB2A61E051
:1009B00084E00E942202219741F761E085E00E94D5
:1009C000220261E070E080E090E00E94A602F70160
:1009D00081929192A192B1927F0161E070E080E0FA
:1009E00090E00E94A6020F5F1F4F0430110509F02E
:1009F0008FCFDF91CF911F910F91FF90EF90DF90FC
:100A0000CF90BF90AF909F908F900895FF920F93DB
:100A10001F93CF93DF93EC01F62E08811981C80153
:100A20000E94E312F81621F06F2DC8010E94EB120C
:100A3000CE01DF91CF911F910F91FF900895AF925A
:100A4000BF92CF92DF92EF92FF920F931F93CF93BB
:100A5000DF9300D0CDB7DEB78B016B0124E0C20E6F
:100A6000D11C7B015C01A61AB70AC5018E0D9F1D22
:100A70009A838983F70161917F01CE0101960E94DB
:100A80000605EC14FD0489F7C8010F900F90DF9163
:100A9000CF911F910F91FF90EF90DF90CF90BF907B
:100AA000AF900895CF93DF9300D000D0CDB7DEB7DD
:100AB00083E40E9472036F5F7F4F8F4F9F4F698364
:100AC0007A838B839C83BE016F5F7F4F8CE090E0C5
:100AD0000E941F050F900F900F900F90DF91CF9104
:100AE0000895AF92BF92CF92DF92EF92FF920F9351
:100AF0001F93CF93DF9300D0CDB7DEB78B016B018F
:100B000024E0C20ED11C7B015C01A61AB70AC50104
:100B10008E0D9F1D9A838983F70161917F01CE011C
:100B200001960E940605EC14FD0489F7C8010F9098
:100B30000F90DF91CF911F910F91FF90EF90DF9079
:100B4000CF90BF90AF9008951F920F920FB60F9263
:100B500011242F933F934F935F936F937F938F93C2
:100B60009F93AF93BF93EF93FF9387E294E00E942C
:100B70004601FF91EF91BF91AF919F918F917F912E
:100B80006F915F914F913F912F910F900FBE0F90FA
:100B90001F9018951F920F920FB60F9211242F934A
:100BA0008F939F93EF93FF93E0913704F091380474
:100BB0008081E0913D04F0913E0482FD1BC0908154
:100BC000809140048F5F8F7320914104821741F020
:100BD000E0914004F0E0E95DFB4F958F8093400485
:100BE000FF91EF919F918F912F910F900FBE0F90DA
:100BF0001F9018958081F4CF1F920F920FB60F921D
:100C000011242F933F938F939F93AF93BF93809122
:100C1000990190919A01A0919B01B0919C01309112
:100C2000940123E0230F2D3758F50196A11DB11D26
:100C3000209394018093990190939A01A0939B0132
:100C4000B0939C018091950190919601A09197019C
:100C5000B09198010196A11DB11D809395019093CB
:100C60009601A0939701B0939801BF91AF919F9186
:100C70008F913F912F910F900FBE0F901F9018955D
:100C800026E8230F0296A11DB11DD2CF1F920F920D
:100C90000FB60F9211242F933F934F935F936F934F
:100CA0007F938F939F93AF93BF93EF93FF9381E0D5
:100CB000809301018091E703823019F461E00E9482
:100CC0002202FF91EF91BF91AF919F918F917F9100
:100CD0006F915F914F913F912F910F900FBE0F90A9
:100CE0001F9018951F920F920FB60F9211242F93F9
:100CF0003F934F935F936F937F938F939F93AF93A4
:100D0000BF93EF93FF938091E703823019F460E083
:100D10000E942202FF91EF91BF91AF919F918F911D
:100D20007F916F915F914F913F912F910F900FBEE7
:100D30000F901F9018951F920F920FB60F921124CB
:100D40002F933F934F935F936F937F938F939F93D3
:100D5000AF93BF93CF93EF93FF93CEB51EBC8BEAB7
:100D600094E00197F1F78DB51EBCC13C31F19FB7FE
:100D7000F8948091E2029FBF8F3F21F48FED91E0C4
:100D80000E944503E091DE02F091DF02C083E09112
:100D9000DE02F091DF02CF01019622E08E3D920744
:100DA00051F19093DF028093DE029FB7F894809117
:100DB000E2028F5F8093E2029FBF9FB7F894809119
:100DC000E6039FBF8823E1F083EE92E00E94450393
:100DD0008EBDFF91EF91CF91BF91AF919F918F9178
:100DE0007F916F915F914F913F912F910F900FBE27
:100DF0000F901F9018958FED91E092838183D5CF4E
:100E000080ECE6CFE7E2F4E01382128288EE93E012
:100E1000A0E0B0E084839583A683B78386E091E069
:100E20009183808385EC90E09587848784EC90E0C3
:100E30009787868780EC90E0918B808B81EC90E0A7
:100E4000938B828B82EC90E0958B848B86EC90E088
:100E5000978B868B118E128E138E148EE4E4F5E040
:100E60001382128288E191E091838083A4ECB4E044
:100E7000B583A48380E890E091878087B783A683B9
:100E80001C920895CF93DF93CDB7DEB7C158D10937
:100E90000FB6F894DEBF0FBECDBF789484B58260E4
:100EA00084BD84B5816084BD85B5826085BD85B50E
:100EB000816085BD80916E00816080936E0010928C
:100EC0008100809181008260809381008091810007
:100ED0008160809381008091800081608093800098
:100EE0008091B10084608093B1008091B0008160F6
:100EF0008093B00080917A00846080937A00809122
:100F00007A00826080937A0080917A008160809379
:100F10007A0080917A00806880937A001092C100F4
:100F2000CE014F960E9466038F8D8F3F09F0E3C07C
:100F300082E089831A8A198A62E0CE0141960E9472
:100F4000060519821A821B821C82BE016F5F7F4FC9
:100F500088E090E00E941F0519821A821B821C8281
:100F6000BE016F5F7F4F8CE090E00E941F051982E9
:100F70001A821B821C82BE016F5F7F4F80E190E06E
:100F80000E941F05C12CA0E8DA2EA3E8EA2EA3E4F4
:100F9000FA2EC982DA82EB82FC82BE016F5F7F4F3C
:100FA00080E490E00E947105C982DA82EB82FC82C3
:100FB000BE016F5F7F4F84E490E00E947105C9829B
:100FC000DA82EB82FC82BE016F5F7F4F88E490E0A3
:100FD0000E947105C982DA82EB82FC82BE016F5FDA
:100FE0007F4F8CE490E00E947105BCE9CB2EB3E505
:100FF000DB2EB9ECEB2EB4E3FB2EC982DA82EB8256
:10100000FC82BE016F5F7F4F80E590E00E9471051A
:10101000C982DA82EB82FC82BE016F5F7F4F84E57A
:1010200090E00E947105C982DA82EB82FC82BE01E7
:101030006F5F7F4F88E590E00E947105C982DA8278
:10104000EB82FC82BE016F5F7F4F8CE590E00E94D7
:10105000710589E891E4ACE9B0E489839A83AB83B4
:10106000BC83BE016F5F7F4F84E890E00E947105F2
:1010700080E090E4ACE9B6E489839A83AB83BC83D7
:10108000BE016F5F7F4F80E990E00E94710580E0B4
:1010900090E0A8E4B3E489839A83AB83BC83BE0168
:1010A0006F5F7F4F84E990E00E94710519821A8278
:1010B0001B821C82BE016F5F7F4F88E990E00E9417
:1010C00071058FE089838CE990E09A8B898B6FE0C2
:1010D000CE0141960E94060580E090E0A8ECB1E4C4
:1010E00089839A83AB83BC83BE016F5F7F4F80EAA5
:1010F00090E00E94710581E40E9472036F5F7F4F50
:101100008F4F9F4F24966CAF7DAF8EAF9FAF2497CC
:10111000BE01605C7F4F84E090E00E941F05E0917B
:101120003704F091380482E08083E0913304F09139
:1011300034041082E0913504F09136048FEC808302
:1011400010923F04E0913B04F0913C0486E08083E0
:10115000E0913904F0913A04808180618083E091CC
:101160003904F0913A04808188608083E0913904E9
:10117000F0913A04808180688083E0913904F09195
:101180003A0480818F7D80831092E70384E294EF9C
:101190009093E9038093E80388EA91E69093EB0348
:1011A0008093EA031092ED031092EC0384B78093CE
:1011B000260486E60E9472032B013C0185E60E940C
:1011C00072034B015C0184E60E9472036B017C0197
:1011D00020E030E0A9010E94661387FD5BC020E09B
:1011E00030E0A901C501B4010E94661387FD52C019
:1011F00020E030E0A901C301B2010E94661387FD1F
:1012000049C0A701960160E070E0CB010E94F9128D
:10121000AA966CAF7DAF8EAF9FAFAA972DEC3CEC3A
:101220004CEC5DE3C501B4010E94C3149B01AC0109
:1012300060E070E0CB010E94F91229966CAF7DAF9F
:101240008EAF9FAF29972DEC3CEC4CEC5DE3C301D6
:10125000B2010E946B139B01AC0160E070E0CB0116
:101260000E94F9122D966CAF7DAF8EAF9FAF2D9778
:10127000E2964CAE5DAE6EAE7FAEE297AE968CAEB1
:101280009DAEAEAEBFAEAE97E696CCAEDDAEEEAEE8
:10129000FFAEE6972FB7F8948091990190919A014B
:1012A000A0919B01B0919C012FBF9C01AD012456E0
:1012B000310941095109EA962CAF3DAF4EAF5FAFFE
:1012C000EA9720E030E040E151E429966CAD7DAD35
:1012D0008EAD9FAD29970E94C314A2966CAF7DAFCF
:1012E0008EAF9FAFA29720E030E040E151E42D9611
:1012F0006CAD7DAD8EAD9FAD2D970E946B13A69604
:101300006CAF7DAF8EAF9FAFA69720E030E04FE788
:1013100053E4312C212C26961FAE26972A961FAE19
:101320002A97632D722D80E090E00E94BE1418165B
:101330000CF437C420E030E0A901632D722D80E069
:1013400090E00E94661387FD3BC42E963FAE2E9719
:101350002F962FAE2F9730E060963FAF609740E01A
:1013600061964FAF61976091E8037091E903615016
:10137000710990E080E00E940C1462966FAF629752
:1013800063967FAF639764968FAF649765969FAFC0
:10139000659720E030E0A9010E94661318160CF052
:1013A00038C4312C212C26961FAE26972A961FAEC4
:1013B0002A97232D322D40E050E062966FAD629760
:1013C00063967FAD639764968FAD649765969FAD86
:1013D00065970E94661387FD00C420E030E0A901F4
:1013E000632D722D80E090E00E94661387FD08C493
:1013F0002E962FAD2E972F963FAD2F9760964FAD1F
:10140000609761965FAD619762966FAD62976396E4
:101410007FAD639764968FAD649765969FAD659732
:101420000E94661387FD04C420E030E0A9012E96D7
:101430006FAD2E972F967FAD2F9760968FAD6097EB
:1014400061969FAD61970E94661387FD0AC461E0B3
:1014500082E00E94500260E08EE00E94500281E033
:101460008093000161E085E00E94500261E084E029
:101470000E94500260E083E00E94500261E086E03A
:101480000E945002CE0101960E944C04CE010196AA
:101490006C01F7EEEF2EF3E0FF2E10E5812F0E9496
:1014A00072036B966CAF7DAF8EAF9FAF6B9784E08E
:1014B000810F0E9472032B013C01D6018D909D90FB
:1014C000AD90BD906D01C501B4010E940C14A30143
:1014D00092010E94C3149B01AC016B966CAD7DAD73
:1014E0008EAD9FAD6B970E94F912F7016787708BE5
:1014F000818B928B87829086A186B2862AE0B50185
:10150000A40187E294E00E94B10369E571E087E2FB
:1015100094E00E94A7031F5FBCE0EB0EF11C1435A2
:1015200009F0BCCF61E08CE00E9450028CB5806471
:101530008CBD8CB580688CBD8AE08EBD2FB7F894C9
:1015400083EE92E09093E3038093E2039093E503AC
:101550008093E4031092E6032FBF2FB7F8948FED2A
:1015600091E09093DF028093DE029093E1028093FA
:10157000E0021092E2022FBFE0914805F091490588
:10158000F0934B05E0934A0580914C0590914D05F1
:10159000892B09F010828FEB91E09A8B898B20E2E6
:1015A00030E03E8B2D8B43E04B8F1C8E9C8B8B8BC6
:1015B000198E1A8E8FEF9FEF988F8F8B82E595E0B3
:1015C0009E8F8D8F8FE991E09FAB8EAB3BAF2AAFA3
:1015D00099AF88AF87EE93E098A38F8F19A21AA2D4
:1015E0001BA21CA219A6CE018C5B9F4F0E94660312
:1015F0006CE571E087E294E00E94A70325964FAD69
:10160000259750E070E060E02AE087E294E00E94D5
:10161000B10369E571E087E294E00E94A70320919D
:10162000EA033091EB038091E8039091E903F89489
:101630001092800010928100109285001092840018
:1016400030938B0020938A009093890080938800C8
:101650008091810088608093810080918100887FE3
:1016600080938100809181008460809381008091CB
:101670006F00826080936F0080916F008460809320
:101680006F00789478946E961FAE6E9768961FAE32
:10169000689780910101882309F444C210920101E6
:1016A000EFE3FCE93197F1F700C000008091000101
:1016B000F0E48F9FC001112480937C0080917A0018
:1016C000806480937A0080917A0086FDFCCF9091AF
:1016D0007800809179008927982789279093ED03D6
:1016E0008093EC038091E703811104C060E082E005
:1016F0000E9422028091E703813021F461E082E0C0
:101700000E942202CE0101960E944C0410921E04F7
:1017100010921F04109220041092210427EE33E04F
:1017200067963FAF2EAF67976D961FAE1EAE6D9753
:1017300010E000E087E60E947203CC24C394D12C11
:10174000002E02C0CC0CDD1C0A94E2F70D2C000C1C
:10175000EE08FF08C622D722E822F922CD28CE289B
:10176000CF2809F456C06D964EAD5FAD6D974F5FB3
:101770005F4F6D965FAF4EAF6D9780E5800F0E9413
:1017800072032B013C0184E5800F0E9472034B0120
:101790005C01F801EE0FFF1FEE0FFF1F81E090E0EC
:1017A0008C0F9D1FE80FF91FC080D180E280F3806D
:1017B000C701B6010E940C14A50194010E94C31434
:1017C0009B01AC01C301B2010E94F9129B01AC0163
:1017D0006796AEADBFAD67971B962D933D934D9326
:1017E0005C931E97FD01C782D086E186F2866091E8
:1017F0001E0470911F0480912004909121040E9486
:10180000FA1260931E0470931F0480932004909337
:1018100021040F5F1F4F67962EAD3FAD6797245F82
:101820003F4F67963FAF2EAF67970430110509F021
:1018300081CF6D964EAD5FAD6D97BA01550F880B98
:10184000990B0E940E149B01AC0160911E047091D3
:101850001F0480912004909121040E946B136093D7
:101860001E0470931F04809320049093210488E643
:101870000E947203EE966CAF7DAF8EAF9FAFEE9776
:1018800084E60E9472039B01AC01E6966CAD7DADCF
:101890008EAD9FADE6970E946613882309F4EEC1D2
:1018A00086E60E9472032B013C0185E60E947203CA
:1018B0004B015C0184E60E9472036B017C0120E015
:1018C00030E0A9010E94661387FFF7C150911E0402
:1018D00066965FAF669780911F046C968FAF6C978A
:1018E0000091200410912104252F382FA801EE9695
:1018F0006CAD7DAD8EAD9FADEE970E94F9124B01A0
:101900005C018092220490922304A0922404B0925D
:1019100025048FB7F894C0909901D0909A01E09077
:101920009B01F0909C018FBFD701C601EA962CADB8
:101930003DAD4EAD5FADEA97821B930BA40BB50B8B
:1019400084389340A105B10508F4DAC0EF962FADB5
:10195000EF97C158DF4F3881CF57D040C058DF4F85
:101960004881C058D040CF57DF4F5881C158D04030
:1019700066966FAD66976C967FAD6C97C8010E94B6
:10198000F9122B013C01A5019401A2966CAD7DAD2D
:101990008EAD9FADA2970E94C3149B01AC012E9601
:1019A0006FAD2E972F967FAD2F9760968FAD609776
:1019B00061969FAD61970E94FA122E966FAF2E9797
:1019C0002F967FAF2F9760968FAF609761969FAFEE
:1019D00061979B01AC0162966FAD629763967FAD94
:1019E000639764968FAD649765969FAD65970E94E7
:1019F000661387FDBEC120E030E0A9012E966FADD1
:101A00002E972F967FAD2F9760968FAD609761963A
:101A10009FAD61970E94661387FDC4C1AA962CAD45
:101A20003DAD4EAD5FADAA97C501B4010E94C31490
:101A30004B015C01A3019201A6966CAD7DAD8EAD0C
:101A40009FADA6970E94C3149B01AC012E966FAD6B
:101A50002E972F967FAD2F9760968FAD60976196EA
:101A60009FAD61970E94F912A50194010E94FA129C
:101A7000362E272E26968FAF26972A969FAF2A9727
:101A8000262F372FAC0162966FAD629763967FADBC
:101A9000639764968FAD649765969FAD65970E9436
:101AA000661387FD8CC120E030E0A901632D722D03
:101AB00026968FAD26972A969FAD2A970E94661389
:101AC00087FD90C16696EFAD6697EF96EFAFEF9703
:101AD0006C96FFAD6C97C158DF4FF883CF57D0405D
:101AE000C058DF4F0883C058D040CF57DF4F18830E
:101AF000C158D040EA96CCAEDDAEEEAEFFAEEA976E
:101B0000632D722D26968FAD26972A969FAD2A9724
:101B10000E94DD137093EB036093EA0370938B00D4
:101B200060938A009FB7F8948091E2029FBF882358
:101B300009F4AFCD8FED91E00E944503803C09F49C
:101B40005AC168969FAD68979150973008F057C179
:101B50006E962FAD6E97222311F1F98CFF2009F4B8
:101B600052C129893A893C8B2B8B198E1A8E2FEF03
:101B70003FEF388F2F8B803C09F0E5C2EB88FC8863
:101B800089899A898701081B190B8B8D801711068B
:101B900009F008F44FC110929E0110929D01F12CA2
:101BA00094C12E961FAE2E972F961FAE2F975FE7EC
:101BB00060965FAF609783E461968FAF6197D3CBF8
:101BC0002E961FAE2E972F961FAE2F9760961FAEA4
:101BD000609761961FAE6197C6CB62963FAC6297E5
:101BE00063962FAC639764969FAD649726969FAFDC
:101BF00026976596AFAD65972A96AFAF2A97F8CB33
:101C0000312C212C26961FAE26972A961FAE2A9796
:101C1000EFCB62961FAE629763961FAE6397BFE7E6
:101C20006496BFAF6497E3E46596EFAF65970FCC1A
:101C30006296FFAD62972E96FFAF2E9763962FADFB
:101C400063972F962FAF2F9764963FAD649760965A
:101C50003FAF609765964FAD659761964FAF6197BF
:101C6000F6CB2E961FAE2E972F961FAE2F9760960F
:101C70001FAE609761961FAE6197E9CB85E60E9423
:101C800072039B01AC01AE966CAD7DAD8EAD9FAD88
:101C9000AE970E946613811103CE86E60E947203FE
:101CA0009B01AC01E2966CAD7DAD8EAD9FADE29730
:101CB0000E9466138111F4CD09CE20E030E0A90125
:101CC000C501B4010E94661387FD00CE20E030E01C
:101CD000A901C301B2010E94661387FDF7CDA701D8
:101CE000960160E070E0CB010E94F912AA966CAFF9
:101CF0007DAF8EAF9FAFAA9726E636E646E65FE356
:101D0000C501B4010E94C3149B01AC0160E070E006
:101D1000CB010E94F912A2966CAF7DAF8EAF9FAF40
:101D2000A29726E636E646E65FE3C301B2010E94CB
:101D30006B139B01AC0160E070E0CB010E94F912D3
:101D4000A6966CAF7DAF8EAF9FAFA697E2964CAED6
:101D50005DAE6EAE7FAEE297AE968CAE9DAEAEAE91
:101D6000BFAEAE97E696CCAEDDAEEEAEFFAEE6977A
:101D7000ADCD62964FAD62972E964FAF2E9763967C
:101D80005FAD63972F965FAF2F9764968FAD649783
:101D900060968FAF609765969FAD659761969FAF90
:101DA00061973CCE2E961FAE2E972F961FAE2F9783
:101DB00060961FAE609761961FAE61972FCE6296B8
:101DC0003FAC629763962FAC63976496AFAD649710
:101DD0002696AFAF26976596BFAD65972A96BFAF9B
:101DE0002A9770CE312C212C26961FAE26972A9644
:101DF0001FAE2A9767CE31E06E963FAF6E9768961A
:101E00001FAE6897AACE803C09F4B8CE9A8D99236C
:101E100009F499C11A8E60EC8C3D39F06BED8D3D63
:101E200021F08E3D09F04DC061ECCE0141960E943B
:101E3000D80247C08FEF9FEF988F8F8BD12CC12C8A
:101E4000025011098F89988DC016D10668F4E9896E
:101E5000FA89EC0DFD1D60810E941703988F8F8B0E
:101E60004FEFC41AD40AEECFF70132974081292FE1
:101E700033274217130631F431962081992728170A
:101E8000190619F0FC8CFF20B9F081E0898F1093BE
:101E90009E0100939D010630110541F002301105AD
:101EA00009F07DCE8091C00187FD79CE6E961FAE80
:101EB0006E97FF24F39409C0ED8DFE8D099581E0A6
:101EC000898F10929E0110929D0168965FAD689770
:101ED0005F5F68965FAF6897FF2009F4DACB809167
:101EE0009D0190919E01069709F0A5C12091C00126
:101EF000922F991F9927991F9AA7B22EE894B7F8A5
:101F00008091C40189A33091C3013AA33091C201E9
:101F10003BA33091C1013CA326FF48C188E68B1545
:101F200028F08BEB8B0D8B3008F018C11DA21EA280
:101F30001FA218A642E0B42E8DA19EA1AFA1B8A504
:101F40008CAF9DAFAEAFBFAF84E40E9472039BA77E
:101F50008091E7038CA7BDA61EA68091840088AB64
:101F6000809185008FA78091C00189AB8FAD8AAB2E
:101F70008EAD8BAB8DAD8CAB8CAD8DAB8EA99FA98F
:101F800099AF88AF8E010A5C1F4F60ECC8010E94B8
:101F9000EA027E01BBE2EB0EF11CAA24AA9499246A
:101FA0009A946801F70181907F01682D8A2D992DFF
:101FB0000E941703A82E992E682DC6010E94FC02CC
:101FC000E016F10679F7692DC6010E94FC026A2D20
:101FD000C6010E94FC0260ECC6010E94EA02CCAC81
:101FE000DDACEEACFFACA7019601C701B6010E94C3
:101FF00030156BE771E081111BC026013701E894B1
:1020000077F82FEF3FEF4FE75FE7C301B2010E9480
:102010003015811156C22FEF3FEF4FE75FE7C30145
:10202000B2010E94661318160CF04BC26FE771E004
:1020300087E294E00E94A70369E571E087E294E0FB
:102040000E94A7034CAD5DAD6EAD7FAD2AE087E287
:1020500094E00E94B10369E571E087E294E00E9498
:10206000A7034CAD5DAD6EAD7FAD20E187E294E09E
:102070000E94B10369E571E087E294E00E94A70342
:1020800067E871E087E294E00E94A7030FE911E09E
:102090008EEAE82E81E0F82E93EEC92E92E0D92E3A
:1020A0009FB7F8948091E6039FBF8F3FE9F0E091DE
:1020B000E203F091E303D8018C9180838091E203E5
:1020C0009091E3030196B3E0823E9B0709F476C248
:1020D0009093E3038093E2039FB7F8948091E60323
:1020E0008F5F8093E6039FBFF80141918F0150E01D
:1020F00070E060E020E187E294E00E94B1036DE6C9
:1021000071E087E294E00E94A703E016F10641F631
:1021100069E571E087E294E00E94A703B110B9CAB3
:1021200082E40E9472036F5F7F4F8F4F9F4F6CAFAF
:102130007DAF8EAF9FAFBE01645C7F4F88E090E0C3
:102140000E941F05A6CA8B3D19F481E08A8F23CD1A
:10215000682FCE0141960E94D8021DCD9923F1F03F
:1021600089A5811107C01DA21EA21FA218A633E0D7
:10217000B32EE2CE80EC8B0D843038F41DA21EA26B
:102180001FA218A624E0B22ED7CEBE016F5D7F4FEE
:102190008B2D880F880F90E00E941F058B2D0E94C9
:1021A00072036DA37EA38FA398A745C0A9E2AB15C8
:1021B00008F480C1EB2DF0E0E052FF4E0C94761550
:1021C0000A1113111D11221113111D1122112B11AE
:1021D000301135115A123D11421147114C115A124A
:1021E0005A1242115111561162118511EA11EF1163
:1021F0000A12111218121F122612311238123F122F
:1022000059115A124C1253123A114612B811BF11F9
:10221000C411DC1184E090E0A0E0B0E08DA39EA3A7
:10222000AFA3B8A789CE84EE97E0A0E0B0E08DA37D
:102230009EA3AFA3B8A7B12C7FCE88E090E0A0E02A
:10224000B0E0F5CF25E030E040E050E02DA33EA324
:102250004FA358A7F0CF81E190E0A0E0B0E0E7CF36
:102260002BE130E040E050E0F1CF88E190E0A0E0E9
:10227000B0E0DDCF84B78DA3DECF27E030E040E0D3
:1022800050E0E4CF83E090E0A0E0B0E0D0CF1DA22A
:102290001EA21FA218A6CFCF8FE691E00E948C004D
:1022A00080CF21E030E040E050E0D0CF85E791E002
:1022B000F5CFEF8DF8A1843010F4911180838081E7
:1022C00090E05AC08EE480937C008FE39FE10197F9
:1022D000F1F700C0000080917A00806480937A005A
:1022E00080917A0086FDFCCF809178002091790062
:1022F000322F282F032E000C440B550B64EB7BE28E
:1023000081E190E00E945715A1CF88EC80937C007A
:1023100080917A00806880937A009FEFA9EFB0E007
:102320009150A040B040E1F700C0000080917A00D9
:10233000806480937A0080917A0086FDFCCF609162
:1023400078007091790090E080E00E940C142EEAF1
:1023500037E242EA53E40E94F91226EF38E24CE9F0
:102360005FE30E946B136DA37EA38FA398A763CF37
:10237000EF8DF8A181819281B0E0A0E058CFEF8D80
:10238000F8A183819481F8CF0F8D18A1F8016381A2
:10239000748190E080E00E940C146B017C01D801F4
:1023A00011966D917C9190E080E00E940C149B014D
:1023B000AC01C701B601D5CFEF8DF8A16181728163
:1023C00090E080E00E940C1426E837E3A9010E9407
:1023D000C314C9CFEF8DF8A185819681CDCF81E659
:1023E0000E9472036DA37EA38FA398A7EF8DF8A11F
:1023F000658176816230710548F090E080E00E944E
:102400000C142DA13EA14FA158A5E1CF60E070E0D2
:10241000CB01A9CFEF8DF8A187819085A185B285E9
:1024200006CFEF8DF8A183899489A589B689FFCE5F
:10243000EF8DF8A1878D90A1A1A1B2A1F8CEEF8D6B
:10244000F8A183A594A5A5A5B6A5F1CEEF8DF8A119
:1024500083859485A585B6858DA39EA3AFA3B8A7D4
:10246000EACEEF8DF8A18789908DA18DB28DF4CF42
:10247000EF8DF8A183A194A1A5A1B6A1EDCFEF8D19
:10248000F8A187A590A9A1A9B2A9E6CF992311F037
:10249000817089A789A514CFEF8DF8A183AD94AD84
:1024A000A5ADB6ADD9CFEF8DF8A187A990ADA1ADFF
:1024B000B2ADD2CF1DA21EA21FA218A6BB24B394F8
:1024C0003BCD2FEF3FEF4FE75FE4C701B6010E941E
:1024D000BE1418161CF463E871E0AACD2FEF3FEF8D
:1024E0004FE75FECC701B6010E94661387FDF3CF8B
:1024F00020E030E0A901C701B6010E94661387FF02
:1025000009C06DE287E294E00E946801F7FAF09456
:10251000F7F8F09410E160E070E080E09FE320E0E5
:1025200030E040E251E40E946B131150C1F7A70163
:1025300096010E94FA126B017C010E94DD132B01AF
:102540003C010E940C149B01AC01C701B6010E9422
:10255000F9126B017C012AE0B301A20187E294E049
:102560000E94B1036EE287E294E00E94680111E1EB
:10257000115009F461CD20E030E040E251E4C701A0
:10258000B6010E94C3142B013C010E94DD136B01B4
:10259000F12CE12C2AE0B701A60187E294E00E9429
:1025A000B103C701B6010E940C149B01AC01C30129
:1025B000B2010E94F9126B017C01DACFD092E303E1
:1025C000C092E20389CDF999FECF92BD81BDF89A00
:1025D000992780B50895262FF999FECF1FBA92BD8D
:1025E00081BD20BD0FB6F894FA9AF99A0FBE0196F4
:1025F00008955058BB27AA270E9411130C948414E5
:102600000E94761438F00E947D1420F039F49F3F28
:1026100019F426F40C9473140EF4E095E7FB0C9473
:102620006D14E92F0E94951458F3BA1762077307C7
:102630008407950720F079F4A6F50C94B7140EF4EE
:10264000E0950B2EBA2FA02D0B01B90190010C01C2
:10265000CA01A0011124FF27591B99F0593F50F4DA
:10266000503E68F11A16F040A22F232F342F442732
:10267000585FF3CF469537952795A795F04053952A
:10268000C9F77EF41F16BA0B620B730B840BBAF0FA
:102690009150A1F0FF0FBB1F661F771F881FC2F765
:1026A0000EC0BA0F621F731F841F48F48795779579
:1026B0006795B795F7959E3F08F0B0CF9395880F33
:1026C00008F09927EE0F9795879508950E94491471
:1026D00008F481E008950E947F130C9484140E94F2
:1026E0007D1458F00E94761440F029F45F3F29F0E1
:1026F0000C946D1451110C94B8140C9473140E9422
:10270000951468F39923B1F3552391F3951B550B59
:10271000BB27AA2762177307840738F09F5F5F4FB4
:10272000220F331F441FAA1FA9F335D00E2E3AF0F3
:10273000E0E832D091505040E695001CCAF72BD00B
:10274000FE2F29D0660F771F881FBB1F261737075C
:102750004807AB07B0E809F0BB0B802DBF01FF278E
:1027600093585F4F3AF09E3F510578F00C946D14EA
:102770000C94B8145F3FE4F3983ED4F386957795B4
:102780006795B795F7959F5FC9F7880F911D969547
:10279000879597F90895E1E0660F771F881FBB1FA3
:1027A000621773078407BA0720F0621B730B840B50
:1027B000BA0BEE1F88F7E09508950E949D1488F0EB
:1027C0009F5798F0B92F9927B751B0F0E1F0660FF5
:1027D000771F881F991F1AF0BA95C9F714C0B13036
:1027E00091F00E94B714B1E008950C94B714672FCC
:1027F000782F8827B85F39F0B93FCCF38695779565
:102800006795B395D9F73EF490958095709561954D
:102810007F4F8F4F9F4F0895E89409C097FB3EF478
:1028200090958095709561957F4F8F4F9F4F99231D
:10283000A9F0F92F96E9BB279395F695879577959B
:102840006795B795F111F8CFFAF4BB0F11F460FF5B
:102850001BC06F5F7F4F8F4F9F4F16C0882311F0B3
:1028600096E911C0772321F09EE8872F762F05C0C7
:10287000662371F096E8862F70E060E02AF09A9562
:10288000660F771F881FDAF7880F9695879597F957
:102890000895990F0008550FAA0BE0E8FEEF1616F1
:1028A0001706E807F907C0F012161306E407F50744
:1028B00098F0621B730B840B950B39F40A2661F0B8
:1028C000232B242B252B21F408950A2609F4A1405B
:1028D000A6958FEF811D811D089597F99F6780E868
:1028E00070E060E008959FEF80EC089500240A9462
:1028F0001616170618060906089500240A941216DB
:102900001306140605060895092E0394000C11F40D
:10291000882352F0BB0F40F4BF2B11F460FF04C0BA
:102920006F5F7F4F8F4F9F4F089557FD9058440F13
:10293000551F59F05F3F71F04795880F97FB991F1E
:1029400061F09F3F79F087950895121613061406DB
:10295000551FF2CF4695F1DF08C016161706180668
:10296000991FF1CF86957105610508940895E89443
:10297000BB2766277727CB0197F908950E94491452
:1029800008F48FEF08950E94D6140C9484140E94CA
:10299000761438F00E947D1420F0952311F00C94E9
:1029A0006D140C94731411240C94B8140E94951493
:1029B00070F3959FC1F3950F50E0551F629FF00192
:1029C000729FBB27F00DB11D639FAA27F00DB11DAB
:1029D000AA1F649F6627B00DA11D661F829F222734
:1029E000B00DA11D621F739FB00DA11D621F839FBB
:1029F000A00D611D221F749F3327A00D611D231F91
:102A0000849F600D211D822F762F6A2F11249F57DE
:102A100050409AF0F1F088234AF0EE0FFF1FBB1FE1
:102A2000661F771F881F91505040A9F79E3F5105A0
:102A300080F00C946D140C94B8145F3FE4F3983E4E
:102A4000D4F3869577956795B795F795E7959F5F4A
:102A5000C1F7FE2B880F911D9695879597F90895DC
:102A60000E944914880B990B0895A1E21A2EAA1B03
:102A7000BB1BFD010DC0AA1FBB1FEE1FFF1FA2172E
:102A8000B307E407F50720F0A21BB30BE40BF50B2B
:102A9000661F771F881F991F1A9469F760957095B4
:102AA000809590959B01AC01BD01CF010895052E45
:102AB00097FB1EF400940E946E1557FD07D00E94EC
:102AC000351507FC03D04EF40C946E1550954095C7
:102AD000309521953F4F4F4F5F4F089590958095CA
:102AE000709561957F4F8F4F9F4F0895EE0FFF1F99
:0C2AF0000590F491E02D0994F894FFCFBC
:102AFC000101000000006801C800F500B5012601C5
:102B0C0004011801000000002903C80063036203DC
:102B1C00492F4F206572726F722C20456E64206FA6
:102B2C006620436F6E76657273696F6E206E6F747C
:102B3C00207265616368656420616674657220004B
:102B4C0020636865636B732E000D0A004669726D15
:102B5C00776172652056657273696F6E3A20003129
:102B6C003038313300312E322E31006E616E0069F7
:102B7C006E66006F766600747820627566666572A4
:042B8C003A200000EB
:00000001FF
