:100000000C948B030C94B3030C94B3030C94B303C0
:100010000C94B3030C94B3030C94B3030C94B30388
:100020000C94B3030C94B3030C94B3030C94B30378
:100030000C94B3030C94B3030C94B3030C94B30368
:100040000C944C070C9496070C94C2050C949C05D8
:100050000C94B3030C94B3030C94B3030C94B30348
:100060000C94B3030C94B30308000000BE9224491F
:10007000123EABAAAA2ABECDCCCC4C3E00000080DA
:10008000BEABAAAAAA3E00000000BF000000803F4D
:100090000000000000084178D3BB4387D1133D190D
:1000A0000E3CC3BD4282AD2B3E68EC8276BED98F3A
:1000B000E1A93E4C80EFFFBE01C4FF7F3F0000007E
:1000C000000000000000240027002A0000000000BB
:1000D000250028002B00206D5600202A2043616C4B
:1000E00063756C617465642056434320666F7220AB
:1000F00065786163746C7920312E315620526566C3
:100100006572656E63653A2000205600202A2052F1
:1001100065666572656E636520566F6C74616765B0
:1001200020286966205643433D3D3556293A200034
:10013000202A2041444320526561646F7574206613
:100140006F7220312E3156205265666572656E637E
:10015000653A20000D0A2A2A2042616E6420476118
:100160007020566F6C746167652054657374202A23
:100170002A002020204E4F54453A205468652061C3
:1001800063637572616379206F6620746869732098
:1001900074657374206973206E6F7420636C65617D
:1001A000722E00204300202A20496E7465726E6111
:1001B0006C204469652054656D7065726174757258
:1001C000653A20000D0A2A2A20496E7465726E6114
:1001D0006C2054656D70657261747572652054652C
:1001E0007374202A2A0020202D3E2054656D702033
:1001F0007365656D732076657279206C6F77206604
:100200006F722074657374696E6720656E766972AB
:100210006F6E6D656E74202862656C6F7720313566
:100220002043290020202D3E2054656D70207365E9
:10023000656D732076657279206869676820666FDE
:10024000722074657374696E6720656E7669726F6B
:100250006E6D656E74202861626F7665203535207D
:1002600043290020202D3E2053656E736F7220615C
:100270007070656172732073686F72746564207446
:100280006F2067726F756E64210020202D3E205311
:10029000656E736F7220617070656172732064693E
:1002A00073636F6E6E65637465642C20636972633B
:1002B000756974206973206F70656E21002043009A
:1002C0002020202A20556E63616C6962726174651A
:1002D000642054656D703A20002020202A20556E3D
:1002E00063616C6962726174656420546865726DE3
:1002F0006973746F7220526573697374616E63659C
:10030000202832322E316B206F686D206669786547
:1003100064293A20002020202A20566F6C746167DF
:10032000652061742041444320617373756D696E6B
:100330006720352E3056205265666572656E63659E
:100340003A20002020202A20526174696F20746FA7
:100350002052656620566F6C746167653A200020F4
:1003600020202A20526177204144432056616C7539
:10037000653A203078000D0A2A2A204C5443323442
:10038000303420616E6420546865726D6973746FD7
:100390007220546573742E202A2A00206D41002C8F
:1003A0002063757272656E742062656C6F772000D1
:1003B00020202D3E2061207265616C2070656C7478
:1003C000696572206465766963652073617475720E
:1003D00061746573207468652063757272656E74EC
:1003E0002041444320617420737461727475702ECF
:1003F0002E2E0020202D3E20746865206D6178200F
:1004000076616C7565206F66207468652041444391
:1004100020697320313032342028313020626974F1
:1004200020707265636973696F6E293B0020202D0F
:100430003E207468697320636F756C642062652068
:100440004F4B206966207468652061626F76652075
:10045000616E642062656C6F7720746573747320BD
:10046000706173733B00206D41002C2063757272C4
:10047000656E742061626F76652000206D41002CEE
:100480002063757272656E742061626F76652000FC
:100490000D0A2A2A2050656C7469657220437572B2
:1004A00072656E742053656E736520546573742095
:1004B0002A2A00202A202875736520746865202D5B
:1004C00068206F7074696F6E20666F72206D6F7236
:1004D0006520696E666F726D6174696F6E290020A8
:1004E0002A20707974686F6E20415652636D642EB5
:1004F0007079202D2D656E645F70676D5F636D642C
:1005000000202A20707974686F6E20415652636D06
:10051000642E7079202D2D775F65667573652030A8
:1005200078666400202A20707974686F6E204156C6
:1005300052636D642E7079202D2D775F6866757318
:1005400065203078643100202A20707974686F6EDD
:1005500020415652636D642E7079202D2D775F6C8B
:1005600066757365203078666600202A207079747D
:10057000686F6E20415652636D642E7079202D7322
:10058000000D0A202A205573652074686520666F67
:100590006C6C6F77696E6720666F726D6174206333
:1005A0006F6D6D616E6420746F206669782066756A
:1005B0007365733A00202D3E20457874656E64653E
:1005C0006420667573652073657474696E67207343
:1005D000686F756C6420626520307800202A2045A1
:1005E0005854454E44454420465553453A203078AA
:1005F00000202D3E2048696768206675736520736A
:10060000657474696E672073686F756C64206265C9
:1006100020307800202A2048494748204655534535
:100620003A20307800202D3E204C6F77206675737D
:10063000652073657474696E672073686F756C6488
:1006400020626520307800202A204C4F57204655E4
:1006500053453A203078000D0A2A2A2050726F67DD
:1006600072616D6D656420467573657320546573A2
:1006700074202A2A000D0A52656D656D6265723A12
:10068000204354524C2D4320746F206578697421A7
:10069000000D0A53656C662D5465737420436F6DAD
:1006A000706C6574652E002C2030352F31382F3258
:1006B0003031380056657273696F6E200050656C7A
:1006C00074696572504F53542E696E6F00000000BC
:1006D0000023002600290004040404040404040286
:1006E00002020202020303030303030102040810CF
:1006F000204080010204081020010204081020009C
:1007000000000800020100000304070000000000D0
:10071000000000004A0F11241FBECFEFD8E0DEBF5B
:10072000CDBF12E0A0E0B1E0E4EFFAE202C0059034
:100730000D92A030B107D9F724E0A0E0B2E001C0EB
:100740001D92A833B207E1F713E0CBE8D3E004C071
:100750002197FE010E948C12CA38D107C9F70E9466
:10076000660A0C9478150C940000CF92DF92EF92F9
:10077000FF920F931F93CF93DF936C017A018B014C
:10078000C0E0D0E0CE15DF0589F0D8016D918D0174
:10079000D601ED91FC910190F081E02DC601099503
:1007A000892B11F47E0102C02196ECCFC701DF91A5
:1007B000CF911F910F91FF90EF90DF90CF90089510
:1007C000CF93DF9390E0FC01E551F94F2491FC01B8
:1007D000E952F94F8491882361F190E0880F991FC5
:1007E000FC01EE53FF4FC591D491FC01E453FF4F40
:1007F000A591B491611109C09FB7F89488812095A3
:1008000082238883EC912E230BC0623061F49FB762
:10081000F8943881822F809583238883EC912E2B46
:100820002C939FBF06C08FB7F894E8812E2B2883A6
:100830008FBFDF91CF9108953FB7F8948091010267
:1008400090910202A0910302B091040226B5A89BE8
:1008500005C02F3F19F00196A11DB11D3FBFBA2F52
:10086000A92F982F8827820F911DA11DB11DBC01B2
:10087000CD0142E0660F771F881F991F4A95D1F777
:1008800008958F929F92AF92BF92CF92DF92EF9294
:10089000FF926B017C010E941C044B015C01C1149E
:1008A000D104E104F104F1F00E941C04DC01CB014D
:1008B00088199909AA09BB09883E9340A105B10589
:1008C00070F321E0C21AD108E108F10888EE880E21
:1008D00083E0981EA11CB11CC114D104E104F104F1
:1008E00019F7DDCFFF90EF90DF90CF90BF90AF90E2
:1008F0009F908F900895FC01A681B7819D012F5F85
:100900003F4F4481558180859185840F951F28171D
:10091000390750F4378326836C930680F781E02DE6
:10092000108281E090E0089580E090E00895809149
:100930003404909135042091320430913304821BA9
:10094000930B2FB7F89440910C032FBF50E02FEF7B
:1009500030E0281B390B421753077CF0E09132043A
:10096000F0913304F0933504E0933404809136041D
:1009700090913704892B61F50895EEEAF3E0019731
:1009800049E052E09F012E5A33402817390734F7C7
:100990002191A0910803B09109032C9320910803A1
:1009A000309109032F5F3F4F3093090320930803D1
:1009B0002850334021F450930903409308033FB774
:1009C000F89420910C032F5F20930C033FBFDACFE4
:1009D00010820895CF93DF93CFEFD0E09FB7F894C4
:1009E00080910C039FBF90E0209134043091350436
:1009F0004091320450913304241B350BAE01421B4D
:100A0000530B8417950738F061E070E080E090E0C8
:100A10000E944104E3CFDF91CF910C949704089595
:100A200080E090E008950E94921281E193E00E949C
:100A3000050821E0892B09F420E0822F0895DC01CC
:100A4000ED91FC910190F081E02D09946115710503
:100A500079F0FB0101900020E9F73197AF01461BC7
:100A6000570BDC01ED91FC910280F381E02D09949C
:100A700080E090E008954F925F926F927F92EF92A4
:100A8000FF920F931F93CF93DF93CDB7DEB7A1975C
:100A90000FB6F894DEBF0FBECDBF7C01FA01CB01CB
:100AA00019A2223008F42AE08E010F5D1F4F422E5A
:100AB000512C612C712CBF01A30192010E944B1299
:100AC000F901CA01015011096A3014F4605D01C0D6
:100AD000695CD8016C93232B242B252B61F7B8017B
:100AE000C7010E942605A1960FB6F894DEBF0FBE7F
:100AF000CDBFDF91CF911F910F91FF90EF907F902D
:100B00006F905F904F9008956FE171E00C9426050F
:100B10000F931F93CF93DF93EC010E9426058C0166
:100B2000CE010E948405800F911FDF91CF911F910C
:100B30000F9108950C9426051F920F920FB60F92F5
:100B400011242F933F934F935F936F937F938F93D2
:100B50009F93AF93BF93EF93FF9381E193E00E9444
:100B6000DC09FF91EF91BF91AF919F918F917F91A0
:100B70006F915F914F913F912F910F900FBE0F900A
:100B80001F9018951F920F920FB60F9211242F935A
:100B90008F939F93EF93FF93E0912103F0912203B2
:100BA0008081E0912703F091280382FD12C090819B
:100BB00080912A038F5F8F7320912B03821751F04E
:100BC000E0912A03F0E0EF5EFC4F958F80932A03BB
:100BD00001C08081FF91EF919F918F912F910F9094
:100BE0000FBE0F901F901895833081F028F481304C
:100BF00099F08230A1F008958730A9F08830B9F0DB
:100C00008430D1F4809180008F7D03C0809180007A
:100C10008F7780938000089584B58F7702C084B564
:100C20008F7D84BD08958091B0008F7703C080913F
:100C3000B0008F7D8093B00008951F93CF93DF9312
:100C4000282F30E0F901E150F94F8491F901E55185
:100C5000F94FD491F901E952F94FC491CC23C9F06D
:100C6000162F81110E94F405EC2FF0E0EE0FFF1F0C
:100C7000E453FF4FA591B4918FB7F894111105C0BB
:100C80009C91ED2FE095E92302C0EC91ED2BEC93C4
:100C90008FBFDF91CF911F910895BF92CF92DF92C6
:100CA000EF92FF920F931F93CF93DF9385309105BF
:100CB00020F47C016894E3F802C0E12CF12C24E0DC
:100CC000C22ED12C00E010E0C8E060E084E00E9479
:100CD0001D0662E070E080E090E00E944104D0E0F8
:100CE000C7018C239D23BB24B394892B09F4B12C19
:100CF0006B2D86E00E941D06000F111F0B29D59554
:100D0000C79561E084E00E941D0662E070E080E02B
:100D100090E00E94410481E0C81AD108B1F6C801F0
:100D2000DF91CF911F910F91FF90EF90DF90CF90C7
:100D3000BF900895CF92DF92EF92FF92CF93DF930F
:100D400060E085E00E941D0661E070E080E090E0D8
:100D50000E944104C0E2D0E0C12CD12C760160E0B9
:100D600084E00E941D06CC0CDD1CEE1CFF1C0E94C2
:100D70008B09092E000CAA0BBB0BC82AD92AEA2A18
:100D8000FB2A61E084E00E941D06219741F761E0A3
:100D900085E00E941D0661E070E080E090E00E9426
:100DA0004104C701B601DF91CF91FF90EF90DF9032
:100DB000CF900895CF93DF9360E085E00E941D06F9
:100DC00060E084E00E941D0661E070E080E090E059
:100DD0000E944104C9EED3E00E948B09892B79F16E
:100DE0002197C1F462E271E081E193E00E949A05EB
:100DF00048EE53E060E070E081E193E00E944A0831
:100E000062E571E081E193E00E94880581E090E075
:100E10000E94781561E085E00E941D0661E070E0A7
:100E200080E090E00E94410460E085E00E941D06A1
:100E300061E070E080E090E00E944104CDCFDF915E
:100E4000CF91089561E085E00E941D0661E070E0A9
:100E500080E090E00E9441040E94DA0661E084E0B4
:100E60000E941D0662E070E080E090E00E94410474
:100E700060E084E00E941D0662E070E080E090E0A7
:100E80000E94410461E085E00E941D0661E070E07F
:100E900080E090E00C9441041F920F920FB60F92E5
:100EA00011242F933F938F939F93AF93BF93809180
:100EB0000D0390910E03A0910F03B0911003309198
:100EC000000223E0230F2D3720F40196A11DB11D50
:100ED00005C026E8230F0296A11DB11D2093000234
:100EE00080930D0390930E03A0930F03B093100310
:100EF0008091010290910202A0910302B09104023C
:100F00000196A11DB11D8093010290930202A0934E
:100F10000302B0930402BF91AF919F918F913F91D3
:100F20002F910F900FBE0F901F9018951F920F9248
:100F30000FB60F9211242F933F938F939F93EF93AC
:100F4000FF938EB58F3F39F49FB7F89480910C03CF
:100F50009FBF811103C086E08EBD1BC0E0910A03D4
:100F6000F0910B039191F0930B03E0930A03E85087
:100F7000F34031F429E032E030930B0320930A036D
:100F80002FB7F89480910C03815080930C032FBFEE
:100F90009EBDFF91EF919F918F913F912F910F9067
:100FA0000FBE0F901F901895FC01538D448D252F77
:100FB00030E0842F90E0821B930B541710F0CF96F3
:100FC000089501970895FC01918D828D981761F025
:100FD000828DDF01A80FB11D5D968C91928D9F5F70
:100FE0009F73928F90E008958FEF9FEF0895FC011B
:100FF000918D828D981731F0828DE80FF11D858DCE
:1010000090E008958FEF9FEF0895FC01918D228D60
:10101000892F90E0805C9F4F821B91098F739927E5
:10102000089580E090E0892B29F00E941505811138
:101030000C94000008950F931F93CF93DF938C01BE
:10104000C0E0D0E0F801EC0FFD1F6491662371F061
:10105000E0912E04F0912F040190F081E02D8EE2BA
:1010600094E00995892B11F02196ECCFCE01DF9108
:10107000CF911F910F910895CF93DF930E941B088A
:10108000EC018EE294E00E9484058C0F9D1FDF919D
:10109000CF910895CF92DF92EF92FF920F931F931B
:1010A000CF93DF9377FF1DC06A017B01EC016DE2F6
:1010B0000E941F058C0144275527BA014C195D0970
:1010C0006E097F092AE0CE010E943B05800F911F27
:1010D000DF91CF911F910F91FF90EF90DF90CF9014
:1010E00008952AE0DF91CF911F910F91FF90EF902B
:1010F000DF90CF900C943B054F925F926F927F925E
:101100008F929F92AF92BF92CF92DF92EF92FF9217
:101110006B017C01B42E9B01AC010E94111288234B
:1011200019F064EF71E027C026013701E89477F8E1
:101130002FEF3FEF4FE75FE7C301B2010E941112AB
:1011400081110DC02FEF3FEF4FE75FE7C301B20101
:101150000E94F70F18161CF468EF71E00CC02FEF17
:101160003FEF4FE75FE4C701B6010E944F11181629
:1011700094F46CEF71E08EE294E0FF90EF90DF90DA
:10118000CF90BF90AF909F908F907F906F905F9027
:101190004F900C9426052FEF3FEF4FE75FECC70110
:1011A000B6010E94F70F87FDE4CF20E030E0A901EF
:1011B000C701B6010E94F70F87FF0BC06DE28EE2F8
:1011C00094E00E941F054C01F7FAF094F7F8F094B0
:1011D00002C0812C912CA12C60E070E080E09FE3A4
:1011E000AB1440F420E030E040E251E40E94FC0FF8
:1011F000A394F6CF9B01AC01C701B6010E948B0FEF
:101200002B013C010E946E106B017C010E949D101D
:101210009B01AC01C301B2010E948A0F2B013C016A
:101220002AE0B701A6018EE294E00E943B057C0112
:10123000E80CF91CBB2039F06EE28EE294E00E94CB
:101240001F05E80EF91EDB2CDD2031F120E030E037
:1012500040E251E4C301B2010E94A4112B013C0100
:101260000E946E104B01A12CB12C2AE0B501A40103
:101270008EE294E00E943B05E80EF91EC501B40120
:101280000E949D109B01AC01C301B2010E948A0F14
:101290002B013C01DA94D8CFC701FF90EF90DF908B
:1012A000CF90BF90AF909F908F907F906F905F9006
:1012B0004F900895CF93DF93CDB7DEB7809134047C
:1012C000909135046091320470913304681B790B5E
:1012D0002091360430913704620F731F9E01275FFF
:1012E0003F4F4F8158850E949712209136043091CC
:1012F0003704232B69F0E0913404F0913504208108
:10130000222331F03196F0933504E0933404F3CF87
:10131000DF91CF910895CF93DF93E2E0F7E08491DE
:10132000EEEEF6E0D491EAEDF6E0C491CC2391F034
:1013300081110E94F405EC2FF0E0EE0FFF1FE35344
:10134000F94FA591B491EC91ED2381E090E021F467
:1013500080E002C080E090E0DF91CF91089580911D
:10136000000120E4829FC001112480937C008091C1
:101370007A00806480937A0080917A0086FDFCCFA9
:10138000809178002091790090E0922B0895CF937E
:10139000DF93482F50E060E070E020E18EE294E0BF
:1013A0000E943B05EC018EE294E00E9484058C0FC4
:1013B0009D1FDF91CF910895FC01848DDF01A80F5F
:1013C000B11DA35ABF4F2C91848D90E001968F736D
:1013D0009927848FA689B7892C93A089B1898C918C
:1013E00080648C93938D848D981306C00288F38952
:1013F000E02D80818F7D80830895EF92FF920F937F
:101400001F93CF93DF93EC0181E0888F9B8D8C8DB0
:10141000981305C0E889F989808185FD24C0F62EDE
:101420000B8D10E00F5F1F4F0F731127E02E8C8D77
:10143000E8120CC00FB607FCFACFE889F989808161
:1014400085FFF5CFCE010E94DC09F1CF8B8DFE0127
:10145000E80FF11DE35AFF4FF0820B8FEA89FB89F9
:101460008081806207C0EE89FF896083E889F989FD
:1014700080818064808381E090E0DF91CF911F9133
:101480000F91FF90EF900895CF93DF93EC01888D3B
:101490008823C9F0EA89FB89808185FD05C0A88978
:1014A000B9898C9186FD0FC00FB607FCF5CF8081FE
:1014B00085FFF2CFA889B9898C9185FFEDCFCE0148
:1014C0000E94DC09E7CFDF91CF910895CF93DF939E
:1014D000CDB7DEB72E970FB6F894DEBF0FBECDBFE7
:1014E000789484B5826084BD84B5816084BD85B5FF
:1014F000826085BD85B5816085BD80916E0081600B
:1015000080936E00109281008091810082608093B0
:1015100081008091810081608093810080918000B2
:101520008160809380008091B10084608093B100DD
:101530008091B00081608093B00080917A008460D7
:1015400080937A0080917A00826080937A00809103
:101550007A00816080937A0080917A00806880931D
:101560007A001092C10061E082E00E94E00360E036
:101570008EE00E94E00383E08093000161E085E05B
:101580000E94E00361E084E00E94E00360E083E009
:101590000E94E00361E086E00E94E00361E08CE0ED
:1015A0000E94E0038CB580648CBD8CB580688CBDD6
:1015B0008AE08EBD2FB7F89489E092E090930903FA
:1015C0008093080390930B0380930A0310920C03FB
:1015D0002FBFE0913204F0913304F0933504E0938F
:1015E00034048091360490913704892B09F01082DD
:1015F0008DEB96E00E943C080E94970484EB96E0F5
:101600000E941B082AE048E050E060E070E08EE2B3
:1016100094E00E943B0587EA96E00E943C088EE237
:1016200094E00E9484050E94970484E591E00E9462
:101630003C080E94EA048EE480937C0062E070E043
:1016400080E090E00E94410480917A008064809361
:101650007A0080917A0086FDFCCFC090780080915E
:101660007900D12CD82A0D2C000CEE08FF0880E35D
:1016700091E00E941B08B701A6018EE294E00E944F
:101680004A088EE294E00E9484050E94EA048CE0FD
:1016900091E00E941B08C701B6010E949F1020E044
:1016A00030E040EA50E40E94A41120E030E040E83D
:1016B0005AE30E94A41142E050E00E947C0889E0B5
:1016C00091E00E943C080E94EA048AED90E00E94AA
:1016D0001B0864EB7BE281E190E0A70196010E9488
:1016E0006D12BA01A9018EE294E00E944A0886EDCB
:1016F00090E00E943C080E94EA0484EC91E00E9481
:101700003C080E94EA0486EA91E00E941B0888ECEB
:1017100080937C0080917A00806880937A0064E1F5
:1017200070E080E090E00E94410480917A00806443
:1017300080937A0080917A0086FDFCCF60917800DA
:101740007091790080E090E00E949D102EEA37E2CF
:1017500042EA53E40E948A0F26EF38E24CE95FE345
:101760000E94FC0F42E050E00E947C0883EA91E076
:101770000E943C0882E791E00E943C080E94EA0433
:1017800085E0EAEEF1E0DE01169601900D928A9571
:10179000E1F785E0EFEEF1E0DE01119601900D92A8
:1017A0008A95E1F786E793E00E943C0800E010E0AC
:1017B0008BE5E82E81E0F82E97E7C92E91E0D92E2F
:1017C0008EE294E00E9484051F930F93FF92EF92A4
:1017D0008EE294E09F938F930E945A098EE294E0E8
:1017E0000E9484050E94EA040E942207C8010E9408
:1017F0004D060E94DA060E949A06AB01BC01409396
:1018000005025093060260930702709308028FE569
:1018100093E04B875C876D877E870E941B0820E1E1
:101820004B855C856D857E858EE294E00E943B054C
:101830008EE294E00E9484050E94EA040E9422073E
:10184000C8010E944D060E94DA060E949A064B01CA
:101850005C0188249924AA2428E1B2220F900F90D9
:101860000F900F900F900F9081149104A10428E124
:10187000B20651F494FF04C0DC01CB01B06F07C085
:10188000DC01CB01BF7003C0DC01CB01BF718093D1
:10189000050290930602A0930702B093080260919C
:1018A00005027091060280910702909108020E9441
:1018B0009F1020E030E040E851E30E94A4114B016A
:1018C0005C0183E493E00E941B0845E050E0C50101
:1018D000B4010E947C088EE294E00E9484050E947C
:1018E000EA0485E193E00E941B0820E030E040EA32
:1018F00050E4C501B4010E94A41143E050E00E94ED
:101900007C088EE294E00E9484050E94EA0489ED3E
:1019100092E00E941B08A501940160E070E080E85D
:101920009FE30E94FC0F20E030E040E85FE30E946C
:101930008A0F9B01AC016DEC7CEC80EB91E40E9482
:10194000FC0F2B013C0143E050E00E947C0861E762
:1019500071E08EE294E00E9488050E94EA0480EC27
:1019600092E00E941B0820E030E040E251E4C30115
:10197000B2010E94FC0F0E945C1120E030EC43E7B2
:1019800055E40E94FC0F2FE03FEC4BE55BE30E9427
:101990008B0F9B01AC0160E070E080E89FE30E9448
:1019A000FC0F23E333E948E853E40E948A0F2B013C
:1019B0003C0142E050E00E947C088DEB92E00E94E6
:1019C0003C081F930F93DF92CF928EE294E09F9397
:1019D0008F930E945A090F900F900F900F900F90C5
:1019E0000F9023E333E343E75FE3C501B4010E94B3
:1019F0004F111816A4F426E636E646E85FE3C50163
:101A0000B4010E94F70F87FF0AC0BE016F5F7F4FCE
:101A10008EE294E00E9488058AE892E013C02DECE3
:101A20003CEC4CE45DE3C501B4010E94F70F87FF75
:101A30000CC0BE016F5F7F4F8EE294E00E9488056C
:101A400083E692E00E943C082EC020E030E04CE5A6
:101A500052E4C301B2010E944F11181654F4BE01A2
:101A60006F5F7F4F8EE294E00E94880584E292E0EF
:101A7000E9CF20E030E040E751E4C301B2010E9429
:101A8000F70FBE0187FF09C06F5F7F4F8EE294E0C2
:101A90000E94880586EE91E0D5CF6A5F7F4F8EE287
:101AA00094E00E9488050E94EA040F5F1F4F0430F3
:101AB000110509F085CE80E994E00E943C080E945F
:101AC000EA0485E0EAEEF1E0DE01169601900D925F
:101AD0008A95E1F785E0EFEEF1E0DE0111960190E5
:101AE0000D928A95E1F781E0809300010E94AF0991
:101AF0008C01BC0180E090E00E949D1029E831E457
:101B00004CE950E40E94A4116B017C011F930F93D8
:101B10008CE891E09F938F938EE294E09F938F9354
:101B20000E945A0942E050E0C701B6010E947C08B9
:101B300066EA71E08EE294E00E949A050F900F90A1
:101B40000F900F900F900F9020E030E04AEF52E49A
:101B5000C701B6010E94F70FBE0187FF07C06A5F89
:101B60007F4F8EE294E00E94880517C06F5F7F4F21
:101B70008EE294E00E949A058FE794E00E941B0891
:101B80002AE04DE750E060E070E08EE294E00E94D1
:101B90003B058BE794E00E943C080E94EA0461E068
:101BA00082E00E941D0664E670E080E090E00E9402
:101BB00041040E94AF098C01BC0180E090E00E94CA
:101BC0009D1029E831E44CE950E40E94A4116B0116
:101BD0007C011F930F938CEA91E09F938F938EE289
:101BE00094E09F938F930E945A0942E050E0C7010E
:101BF000B6010E947C0866EA71E08EE294E00E94E1
:101C00009A050F900F900F900F900F900F9020E07B
:101C100030E84BE355E4C701B6010E94F70FBE015F
:101C200087FF07C06A5F7F4F8EE294E00E948805BD
:101C300029C06F5F7F4F8EE294E00E949A058AE68A
:101C400094E00E941B082AE048EB5BE060E070E053
:101C50008EE294E00E943B0586E694E00E943C08F8
:101C60000E94EA048DE294E00E943C080E94EA048B
:101C700083EF93E00E943C080E94EA0480EB93E02B
:101C80000E943C080E94EA041F930F938BEC91E0A2
:101C90009F938F938EE294E09F938F930E945A09B3
:101CA00042E050E0C701B6010E947C0866EA71E09C
:101CB0008EE294E00E949A050F900F900F900F9083
:101CC0000F900F9020E030E04AEF53E4C701B601D7
:101CD0000E944F11BE0118163CF46A5F7F4F8EE2DE
:101CE00094E00E94880517C06F5F7F4F8EE294E0FA
:101CF0000E949A058FE993E00E941B082AE044EFB6
:101D000051E060E070E08EE294E00E943B058BE9D8
:101D100093E00E943C080E94EA0499E0E0E0F0E0D1
:101D200090935700F490E3E0F0E090935700049113
:101D3000E2E0F0E0909357001491E1E0F0E090933E
:101D40005700949185E0EFEEF1E0DE0111960190ED
:101D50000D928A95E1F787E596E00E943C080E9483
:101D6000EA0487E496E00E941B088F2D0E94C709B1
:101D70000E94EA048FEFF81689F0BE016F5F7F4F73
:101D80008EE294E00E949A0585E296E00E941B088C
:101D90008FEF0E94C709FF24F39401C0F12C84E166
:101DA00096E00E941B08802F0E94C7090E94EA0447
:101DB000013D81F0BE016F5F7F4F8EE294E00E9493
:101DC0009A0581EF95E00E941B0881ED0E94C709EA
:101DD000FF24F3948CED95E00E941B08812F0E9454
:101DE000C7090E94EA041D3F79F0BE016F5F7F4F73
:101DF0008EE294E00E949A0585EB95E00E941B0814
:101E00008DEF0E94C70902C0FF2041F181E895E0F3
:101E10000E943C080E94EA048AE695E00E943C0881
:101E20000E94EA0487E495E00E943C080E94EA04CC
:101E300084E295E00E943C080E94EA0481E095E07B
:101E40000E943C080E94EA048FED94E00E943C0846
:101E50000E94EA0483EB94E00E943C0881E996E04A
:101E60000E943C0885E796E00E943C080E94EA0434
:101E70008FB7F89440910D0350910E0360910F03BA
:101E8000709110038FBF60E082E00E941D060E94E7
:101E90001108EECFE1E1F3E01382128288EE93E0C5
:101EA000A0E0B0E084839583A683B78385E091E0CA
:101EB0009183808385EC90E09587848784EC90E023
:101EC0009787868780EC90E0918B808B81EC90E007
:101ED000938B828B82EC90E0958B848B86EC90E0E8
:101EE000978B868B118E128E138E148EEEE2F4E099
:101EF0001382128287E191E091838083AEEAB3E09E
:101F0000B583A48380E890E091878087B783A68318
:101F10001C9208955058BB27AA270E94A20F0C9428
:101F200015110E94071138F00E940E1120F039F4AB
:101F30009F3F19F426F40C9404110EF4E095E7FB8E
:101F40000C94FE10E92F0E94261158F3BA1762076D
:101F500073078407950720F079F4A6F50C944811CF
:101F60000EF4E0950B2EBA2FA02D0B01B9019001B4
:101F70000C01CA01A0011124FF27591B99F0593FF8
:101F800050F4503E68F11A16F040A22F232F342F40
:101F90004427585FF3CF469537952795A795F0408E
:101FA0005395C9F77EF41F16BA0B620B730B840BA3
:101FB000BAF09150A1F0FF0FBB1F661F771F881F5B
:101FC000C2F70EC0BA0F621F731F841F48F48795B3
:101FD00077956795B795F7959E3F08F0B0CF9395A5
:101FE000880F08F09927EE0F9795879508950E941E
:101FF000DA1008F481E008950E9410100C94151175
:102000000E940E1158F00E94071140F029F45F3F22
:1020100029F00C94FE1051110C9449110C940411E8
:102020000E94261168F39923B1F3552391F3951B70
:10203000550BBB27AA2762177307840738F09F5FE9
:102040005F4F220F331F441FAA1FA9F335D00E2E56
:102050003AF0E0E832D091505040E695001CCAF7C3
:102060002BD0FE2F29D0660F771F881FBB1F261786
:1020700037074807AB07B0E809F0BB0B802DBF015D
:10208000FF2793585F4F3AF09E3F510578F00C942C
:10209000FE100C9449115F3FE4F3983ED4F386950B
:1020A00077956795B795F7959F5FC9F7880F911D4D
:1020B0009695879597F90895E1E0660F771F881F39
:1020C000BB1F621773078407BA0720F0621B730BEC
:1020D000840BBA0BEE1F88F7E09508950E942E112D
:1020E00088F09F5798F0B92F9927B751B0F0E1F0D9
:1020F000660F771F881F991F1AF0BA95C9F714C089
:10210000B13091F00E944811B1E008950C9448114B
:10211000672F782F8827B85F39F0B93FCCF38695C1
:1021200077956795B395D9F73EF49095809570951E
:1021300061957F4F8F4F9F4F0895E89409C097FB9B
:102140003EF490958095709561957F4F8F4F9F4F8E
:102150009923A9F0F92F96E9BB279395F6958795D2
:1021600077956795B795F111F8CFFAF4BB0F11F495
:1021700060FF1BC06F5F7F4F8F4F9F4F16C088233C
:1021800011F096E911C0772321F09EE8872F762F72
:1021900005C0662371F096E8862F70E060E02AF0B3
:1021A0009A95660F771F881FDAF7880F969587959F
:1021B00097F90895990F0008550FAA0BE0E8FEEF74
:1021C00016161706E807F907C0F012161306E407FB
:1021D000F50798F0621B730B840B950B39F40A26F4
:1021E00061F0232B242B252B21F408950A2609F4D2
:1021F000A140A6958FEF811D811D089597F99F67D6
:1022000080E870E060E008959FEF80EC089500247E
:102210000A941616170618060906089500240A944B
:1022200012161306140605060895092E0394000CD1
:1022300011F4882352F0BB0F40F4BF2B11F460FF60
:1022400004C06F5F7F4F8F4F9F4F089557FD905889
:10225000440F551F59F05F3F71F04795880F97FB6A
:10226000991F61F09F3F79F0879508951216130624
:102270001406551FF2CF4695F1DF08C01616170653
:102280001806991FF1CF8695710561050894089588
:10229000E894BB2766277727CB0197F908950E941A
:1022A000DA1008F48FEF089516F00C9416120C94BF
:1022B000041168940C94FE100E942E11A8F3992327
:1022C000C1F3AEF3DF93CF931F930F93FF92C92F08
:1022D000DD2788232AF02197660F771F881FDAF7FA
:1022E00020E030E040E85FEB9FE3883920F0803E5B
:1022F00038F021968F770E948B0FE8E6F0E004C05B
:102300000E948B0FE5E9F0E00E9424128B01BE01D0
:10231000EC01FB2E6F5771097595771F880B990B90
:102320000E949F1028E132E741E35FE30E94B7116A
:10233000AF2D9801AE01FF900F911F91CF91DF91CA
:102340000E94A20F0C9415110E94B7110C94151144
:102350000E94071138F00E940E1120F0952311F011
:102360000C94FE100C94041111240C9449110E9439
:10237000261170F3959FC1F3950F50E0551F629F92
:10238000F001729FBB27F00DB11D639FAA27F00DCE
:10239000B11DAA1F649F6627B00DA11D661F829FF5
:1023A0002227B00DA11D621F739FB00DA11D621FDA
:1023B000839FA00D611D221F749F3327A00D611DF7
:1023C000231F849F600D211D822F762F6A2F1124D9
:1023D0009F5750409AF0F1F088234AF0EE0FFF1F0C
:1023E000BB1F661F771F881F91505040A9F79E3F63
:1023F000510580F00C94FE100C9449115F3FE4F3FA
:10240000983ED4F3869577956795B795F795E795B8
:102410009F5FC1F7FE2B880F911D9695879597F9C1
:1024200008950E94DA10880B990B08959F3F31F0B0
:10243000915020F4879577956795B795880F911DF2
:102440009695879597F90895DF93CF931F930F93F0
:10245000FF92EF92DF927B018C01689406C0DA2E26
:10246000EF010E94B711FE01E894A59125913591E5
:1024700045915591A6F3EF010E94A20FFE0197012D
:10248000A801DA9469F7DF90EF90FF900F911F9108
:10249000CF91DF910895A1E21A2EAA1BBB1BFD016B
:1024A0000DC0AA1FBB1FEE1FFF1FA217B307E40733
:1024B000F50720F0A21BB30BE40BF50B661F771F8B
:1024C000881F991F1A9469F760957095809590956B
:1024D0009B01AC01BD01CF010895052E97FB1EF4B1
:1024E00000940E94841257FD07D00E944B1207FCF3
:1024F00003D04EF40C94841250954095309521955C
:102500003F4F4F4F5F4F089590958095709561951F
:102510007F4F8F4F9F4F0895EE0FFF1F0590F4914F
:10252000E02D099481E090E0F8940C947815AEE0E9
:10253000B0E0EDE9F2E10C944F158C01CA0146E0E0
:102540004C831A83098377FF02C060E070E8FB01C7
:102550003197FE83ED83A901BC01CE0101960E9453
:10256000C3124D815E8157FD0AC02F813885421705
:1025700053070CF49A01F801E20FF31F10822E9614
:10258000E4E00C946B15ACE0B0E0E9ECF2E10C9403
:1025900041157C016B018A01FC011782168283813F
:1025A00081FFBDC1CE0101964C01F7019381F60177
:1025B00093FD859193FF81916F01882309F4ABC14D
:1025C000853239F493FD859193FF81916F018532B6
:1025D00029F4B70190E00E94AB14E7CF512C312CC5
:1025E00020E02032A0F48B3269F030F4803259F0D0
:1025F000833269F420612CC08D3239F0803339F494
:10260000216026C02260246023C0286021C027FDED
:1026100027C030ED380F3A3078F426FF06C0FAE0D4
:102620005F9E300D1124532E13C08AE0389E300D6A
:102630001124332E20620CC08E3221F426FD6BC192
:10264000206406C08C3611F4206802C0883641F43C
:10265000F60193FD859193FF81916F018111C1CFA7
:10266000982F9F7D9554933028F40C5F1F4FFFE304
:10267000F9830DC0833631F0833771F0833509F06B
:102680005BC022C0F801808189830E5F1F4F442404
:102690004394512C540115C03801F2E06F0E711CA7
:1026A000F801A080B18026FF03C0652D70E002C054
:1026B0006FEF7FEFC5012C870E94A0142C018301CE
:1026C0002C852F77222E17C03801F2E06F0E711C77
:1026D000F801A080B18026FF03C0652D70E002C024
:1026E0006FEF7FEFC5012C870E9495142C012C857C
:1026F0002068222E830123FC1BC0832D90E0481606
:102700005906B0F4B70180E290E00E94AB143A940D
:10271000F4CFF50127FC859127FE81915F01B70178
:1027200090E00E94AB1431103A94F1E04F1A510836
:102730004114510471F7E5C0843611F0893639F53A
:10274000F80127FF07C060817181828193810C5F4E
:102750001F4F08C060817181072E000C880B990BF8
:102760000E5F1F4F2F76722E97FF09C090958095B0
:10277000709561957F4F8F4F9F4F2068722E2AE092
:1027800030E0A4010E94E314A82EA81844C08537A5
:1027900029F42F7EB22E2AE030E025C0F22FF97FF7
:1027A000BF2E8F36C1F018F4883579F0B4C0803769
:1027B00019F0883721F0AFC02F2F2061B22EB4FE60
:1027C0000DC08B2D8460B82E09C024FF0AC09F2F36
:1027D0009660B92E06C028E030E005C020E130E068
:1027E00002C020E132E0F801B7FE07C060817181CC
:1027F000828193810C5F1F4F06C06081718180E0F0
:1028000090E00E5F1F4FA4010E94E314A82EA818A9
:10281000FB2DFF777F2E76FE0BC0372D3E7FA51454
:1028200050F474FE0AC072FC08C0372D3E7E05C00D
:10283000BA2C372D03C0BA2C01C0B52C34FF0DC003
:10284000FE01EA0DF11D8081803311F4397E09C04B
:1028500032FF06C0B394B39404C0832F867809F086
:10286000B39433FD13C030FF06C05A2CB31418F4D0
:10287000530C5B18B32CB31468F4B70180E290E0FA
:102880003C870E94AB14B3943C85F5CFB31410F48D
:102890003B1801C0312C34FF12C0B70180E390E037
:1028A0003C870E94AB143C8532FF17C031FD03C04A
:1028B00088E790E002C088E590E0B7010CC0832F64
:1028C000867859F031FF02C08BE201C080E237FD0B
:1028D0008DE2B70190E00E94AB14A51438F4B70163
:1028E00080E390E00E94AB145A94F7CFAA94F401CD
:1028F000EA0DF11D8081B70190E00E94AB14A11098
:10290000F5CF332009F451CEB70180E290E00E9468
:10291000AB143A94F6CFF7018681978102C08FEF0E
:102920009FEF2C96E2E10C945D15FC01059061503F
:1029300070400110D8F7809590958E0F9F1F0895D5
:10294000FC016150704001900110D8F7809590957E
:102950008E0F9F1F08950F931F93CF93DF93FB015B
:10296000238121FD03C08FEF9FEF28C022FF16C0F7
:1029700046815781248135814217530744F4A08151
:10298000B1819D012F5F3F4F318320838C9326813E
:1029900037812F5F3F4F3783268310C0EB01092F0C
:1029A000182F0084F185E02D0995892BE1F68E81A1
:1029B0009F8101969F838E83812F902FDF91CF91EE
:1029C0001F910F910895FA01AA27283051F1203163
:1029D00081F1E8946F936E7F6E5F7F4F8F4F9F4FB3
:1029E000AF4FB1E03ED0B4E03CD0670F781F891FF5
:1029F0009A1FA11D680F791F8A1F911DA11D6A0FC3
:102A0000711D811D911DA11D20D009F468943F9175
:102A10002AE0269F11243019305D3193DEF6CF0174
:102A20000895462F4770405D4193B3E00FD0C9F73A
:102A3000F6CF462F4F70405D4A3318F0495D31FDA7
:102A40004052419302D0A9F7EACFB4E0A6959795FA
:102A5000879577956795BA95C9F7009761057105D0
:102A600008959B01AC010A2E06945795479537951A
:102A70002795BA95C9F7620F731F841F951FA01D74
:102A800008952F923F924F925F926F927F928F9212
:102A90009F92AF92BF92CF92DF92EF92FF920F93ED
:102AA0001F93CF93DF93CDB7DEB7CA1BDB0B0FB6F7
:102AB000F894DEBF0FBECDBF09942A8839884888B4
:102AC0005F846E847D848C849B84AA84B984C8844A
:102AD000DF80EE80FD800C811B81AA81B981CE0F41
:102AE000D11D0FB6F894DEBF0FBECDBFED01089526
:042AF000F894FFCF88
:102AF4000100000000FD09B503D407440A0508E3FA
:102B040007F707000000007B04B50310050F050D4F
:102B14000A00492F4F206572726F722C20456E6433
:102B2400206F6620436F6E76657273696F6E206ED8
:102B34006F74207265616368656420616674657290
:102B4400200020636865636B732E00202A2054657F
:102B54007374696E67206368616E6E656C202564AA
:102B6400006B206F686D00202A204368616E6E65DB
:102B74006C20546573742025643A2000202A204F69
:102B840066662043757272656E743A204144435BF5
:102B940025645D2C2000206D413A2000202A204F1E
:102BA4006E2043757272656E7420284D6178293ADF
:102BB400204144435B25645D2C2000202A204F6E75
:102BC4002043757272656E7420284D696E293A200F
:102BD4004144435B25645D2C20005041535300461F
:102BE40041494C006E616E00696E66006F76660046
:00000001FF
