:100000000C9490000C94B8000C94B8000C94B800B8
:100010000C94B8000C94B8000C94B8000C94B80080
:100020000C94B8000C94B8000C94B8000C94B80070
:100030000C94B8000C94B8000C94B8000C94B80060
:100040000C94950A0C9461030C948B0C0C94DD0CAD
:100050000C94B8000C94B8000C94B8000C94B80040
:100060000C94B8000C94B80008000000BE9224491B
:10007000123EABAAAA2ABECDCCCC4C3E00000080DA
:10008000BEABAAAAAA3E00000000BF000000803F4D
:100090000000000000084178D3BB4387D1133D190D
:1000A0000E3CC3BD4282AD2B3E68EC8276BED98F3A
:1000B000E1A93E4C80EFFFBE01C4FF7F3F0000007E
:1000C000000000000000240027002A0000000000BB
:1000D000250028002B000000000023002600290036
:1000E00004040404040404040202020202020303DE
:1000F00003030303010204081020408001020408E6
:100100001020010204081020000000070002010076
:100110000003040600000000000000009D03C50D60
:1001200011241FBECFEFD8E0DEBFCDBF16E0A0E0A8
:10013000B1E0ECEAF7E202C005900D92A632B107F9
:10014000D9F718E0A6E2B6E001C01D92A137B107C9
:10015000E1F711E0C0E2D1E004C02297FE010E9465
:100160009913CC31D107C9F70E941C0E0C94D413FB
:100170000C940000AEE0B0E0E0ECF0E00C94AB13C7
:100180008C0177FF02C060E070E8615070407E83B0
:100190006D831A83098386E08C83CE010196BA01B0
:1001A000A9010E94E4002D813E8137FD09C0EF8145
:1001B000F8852E173F070CF4F901E00FF11F1082AC
:1001C0002E96E4E00C94C713ABE0B0E0EAEEF0E06A
:1001D0000C949D133C012B015A01FC0117821682DD
:1001E000838181FD03C06FEF7FEFC6C19AE0892E46
:1001F0001E010894211C311CF3012381F20123FD0F
:10020000859123FF81912F01882309F4B2C18532A2
:1002100039F423FD859123FF81912F01853229F443
:1002200090E0B3010E94D702E7CF982FFF24EE247D
:100230009924FFE1FF15D0F09B3269F09C3228F43D
:10024000903259F0933291F40EC09D3249F09033C0
:1002500069F441E024C052E0F52A84E0F82A28C07D
:1002600098E0F92A25C0E0E1FE2A22C0F7FC29C067
:10027000892F80538A3070F4F6FE05C0989C902C2C
:100280001124980E15C0E89CE02C1124E80EF0E231
:10029000FF2A0EC09E3229F4F6FC6BC140E4F42A1A
:1002A00007C09C3619F450E8F52A02C0983649F484
:1002B000F20123FD959123FF91912F01992309F0DC
:1002C000B8CF892F8554833018F08052833038F4AA
:1002D00044E050E0A40EB51E5FE359830FC093368F
:1002E00031F0933779F0933509F056C020C0F5010D
:1002F0008081898342E050E0A40EB51E610101E0D7
:1003000010E012C0F501C080D180F6FC03C06FEF91
:100310007FEF02C0692D70E042E050E0A40EB51EF0
:10032000C6010E94CC028C015FE7F52214C0F501E2
:10033000C080D180F6FC03C06FEF7FEF02C0692D53
:1003400070E042E050E0A40EB51EC6010E94C1025A
:100350008C0150E8F52AF3FE07C01AC080E290E055
:10036000B3010E94D702EA948E2D90E00817190776
:10037000A8F30EC0F601F7FC8591F7FE81916F019D
:1003800090E0B3010E94D702E110EA9401501040BE
:100390000115110579F7EAC0943611F0993669F51F
:1003A000F7FE08C0F501208131814281538184E04C
:1003B00090E00AC0F501808191819C01442737FDBE
:1003C0004095542F82E090E0A80EB91E9FE6F922D6
:1003D00057FF09C050954095309521953F4F4F4F9D
:1003E0005F4FE0E8FE2ACA01B901A1012AE030E02E
:1003F0000E940303D82ED21840C0953729F41F2D30
:100400001F7E2AE030E01DC01F2D197F9F3661F04E
:10041000903720F4983509F0ACC00FC0903739F010
:10042000983709F0A6C004C028E030E00AC0106187
:1004300014FD146020E130E004C014FD166020E1DA
:1004400032E017FF08C0F5016081718182819381DC
:1004500044E050E008C0F50180819181BC0180E05A
:1004600090E042E050E0A40EB51EA1010E940303FB
:10047000D82ED2188FE7F82EF122F6FE0BC05EEFD1
:10048000F522D91438F4F4FE07C0F2FC05C08FEE53
:10049000F82202C01D2D01C0192DF4FE0DC0FE0171
:1004A000ED0DF11D8081803319F499EEF92208C019
:1004B0001F5FF2FE05C003C08F2D867809F01F5F15
:1004C0000F2DF3FC14C0F0FE0FC01E1510F09D2C74
:1004D0000BC09D2C9E0C911A1E2D06C080E290E050
:1004E000B3010E94D7021F5F1E15C0F304C01E1582
:1004F00010F4E11A01C0EE2404FF0FC080E390E085
:10050000B3010E94D70202FF1DC001FD03C088E7AE
:1005100090E00EC088E590E00BC0802F867891F0C7
:1005200001FF02C08BE201C080E2F7FC8DE290E0A7
:10053000B3010E94D70206C080E390E0B3010E949D
:10054000D7029A94D914C0F3DA94F101ED0DF11D9C
:10055000808190E0B3010E94D702DD20A9F706C098
:1005600080E290E0B3010E94D702EA94EE20C1F746
:1005700043CEF30166817781CB012B96E2E10C94A7
:10058000B913FC010590615070400110D8F78095B7
:1005900090958E0F9F1F0895FC016150704001904F
:1005A0000110D8F7809590958E0F9F1F08950F9397
:1005B0001F93CF93DF938C01EB018B8181FF1BC0D5
:1005C00082FF0DC02E813F818C819D8128173907C4
:1005D00064F4E881F9810193F983E88306C0E88532
:1005E000F985802F0995892B31F48E819F810196A1
:1005F0009F838E8302C00FEF1FEFC801DF91CF9161
:100600001F910F910895FA01AA27283051F1203146
:1006100081F1E8946F936E7F6E5F7F4F8F4F9F4F96
:10062000AF4FB1E03ED0B4E03CD0670F781F891FD8
:100630009A1FA11D680F791F8A1F911DA11D6A0FA6
:10064000711D811D911DA11D20D009F468943F9159
:100650002AE0269F11243019305D3193DEF6CF0158
:100660000895462F4770405D4193B3E00FD0C9F71E
:10067000F6CF462F4F70405D4A3318F0495D31FD8B
:100680004052419302D0A9F7EACFB4E0A6959795DE
:10069000879577956795BA95C9F7009761057105B4
:1006A00008959B01AC010A2E0694579547953795FE
:1006B0002795BA95C9F7620F731F841F951FA01D58
:1006C00008951F920F920FB60F9211242F938F93BC
:1006D0009F93EF93FF938EB58F3F19F58FB7F894E3
:1006E00090912F078FBF9923E1F0E0912D07F091B2
:1006F0002E072191F0932E07E0932D07EB52F74040
:1007000031F48CE296E090932E0780932D079FB7EB
:10071000F89480912F07815080932F079FBF2EBDA3
:1007200002C086E08EBDFF91EF919F918F912F9136
:100730000F900FBE0F901F9018951092B307109254
:10074000B207E2EBF7E082E196E09293829380E3D6
:1007500097E09093B5078093B40780E890E090937A
:10076000B9078093B807CF010E94340A08951F93F8
:100770004091B6075091B7078091B4079091B507A3
:10078000481B590B8FB7F89420912F078FBF30E08B
:100790008FEF90E0841B950B281739076CF520E04C
:1007A00030E0D901A05DB84F415050406CE276E096
:1007B00020C0E0912B07F0912C078C918083E09171
:1007C0002B07F0912C07CF01019690932C07809373
:1007D0002B078B52974011F4728361839FB7F89473
:1007E00080912F078F5F80932F079FBF2F5F3F4F11
:1007F000119624173507ECF280EB97E00E94340A3B
:100800001F91089588EC80937C0080917A00806825
:1008100080937A0064E170E080E090E00E94EB0A4F
:1008200080917A00806480937A0080917A0086FDBE
:10083000FCCF609178007091790080E090E00E9498
:100840007D112EEA37E242EA53E40E947B1026EF44
:1008500038E24CE95FE30E94E41008958EE480934F
:100860007C0062E070E080E090E00E94EB0A809102
:100870007A00806480937A0080917A0086FDFCCFB4
:100880008091780060917900362F20E090E0282B4D
:10089000392B442737FD4095542FB901CA010895DB
:1008A000CF93DF93CFEFD0E006C061E070E080E04F
:1008B00090E00E94EB0A8FB7F89440912F078FBF0A
:1008C00050E08091B6079091B7072091B40730911E
:1008D000B507821B930B9E01281B390B4217530748
:1008E00020F70E94B703DF91CF910895EF92FF9216
:1008F0000F931F93DF93CF93CDB7DEB72A970FB631
:10090000F894DEBF0FBECDBF80EB97E060E071E0F2
:100910000E9468100E945004DE011196ECE6F2E09D
:1009200085E001900D928150E1F7DE011696E1E736
:10093000F2E085E001900D928150E1F78EE00E9497
:10094000820B8C018DB79EB708970FB6F8949EBFA7
:100950000FBE8DBFEDB7FEB7319620EBE22E27E03C
:10096000F22EADB7BEB71296FC92EE92119783E2CB
:1009700091E09383828315830483178306830E9407
:100980005A0A8DB79EB708960FB6F8949EBF0FBE51
:100990008DBF0D37110528F4C701BE016F5F7F4F72
:1009A00015C0C701BE016A5F7F4F0E947E0FC7015D
:1009B00064E471E00E947E0FC7016DE770E04AE0D9
:1009C00050E00E94060FC70165E571E00E946810C3
:1009D0000E94500482E061E00E94E30B64E670E054
:1009E00080E090E00E94EB0A8EE00E94820B8C0176
:1009F000ADB7BEB718970FB6F894BEBF0FBEADBF68
:100A0000EDB7FEB7319690EBE92E97E0F92E1296EE
:100A1000FC92EE92119789E591E09383828315838E
:100A20000483178306830E945A0A8DB79EB70896DF
:100A30000FB6F8949EBF0FBE8DBF93E00C3F190711
:100A400028F4C701BE016F5F7F4F2AC0C701BE01F6
:100A50006A5F7F4F0E947E0FC70164E471E00E94CD
:100A60007E0FC7016CEF73E04AE050E00E94060F72
:100A7000C70165E571E00E9468100E945004C7013B
:100A80006FE771E00E9468100E945004C70168EB94
:100A900071E00E9468100E945004C70162EF71E08B
:100AA0000E9468100E945004ADB7BEB718970FB6E9
:100AB000F894BEBF0FBEADBFEDB7FEB7319680EB69
:100AC000E82E87E0F82E1296FC92EE92119785E3BD
:100AD00092E09383828315830483178306830E94A5
:100AE0005A0A8DB79EB708960FB6F8949EBF0FBEF0
:100AF0008DBF055F114028F0C701BE016F5F7F4FBA
:100B000015C0C701BE016A5F7F4F0E947E0FC701FB
:100B10006BE572E00E947E0FC70164EF71E04AE06E
:100B200050E00E94060FC70165E571E00E94681061
:100B30000E9450042A960FB6F894DEBF0FBECDBFB8
:100B4000CF91DF911F910F91FF90EF9008950F9338
:100B50001F9300EB17E0C80166E772E00E9468107F
:100B60000E945004C80168E972E00E947E0F0E9452
:100B70000204AB01BC01C80122E030E00E94651014
:100B8000C80166EB72E00E946810C80169EB72E070
:100B90000E9468100E9450041F910F9108952F9297
:100BA0003F924F925F926F927F928F929F92AF92FD
:100BB000BF92CF92DF92EF92FF920F931F93DF933A
:100BC000CF93CDB7DEB72E970FB6F894DEBF0FBE2A
:100BD000CDBFDE011596ECE6F2E085E001900D92C6
:100BE0008150E1F7DE011A96E1E7F2E085E001903D
:100BF0000D928150E1F780EB97E06AEE72E00E947F
:100C000068106624772450EB852E57E0952E41EE30
:100C1000242E43E0342E3AE0432E512C4C0E5D1E20
:100C200080E090E0A0E0B0E089839A83AB83BC834E
:100C300080EB97E00E94570E00D000D000D0EDB7B7
:100C4000FEB73196ADB7BEB712969C928E921197B1
:100C50008FE093E093838283758264820E945A0AB4
:100C6000ADB7BEB716960FB6F894BEBF0FBEADBFF8
:100C7000C4010E94570E0E945004C3010E940B0A37
:100C80007B018C0100D000D0EDB7FEB7928281824B
:100C900085E293E0948383830E945A0A0F900F9019
:100CA0000F900F90C401B801A70120E130E00E942D
:100CB000F70EC4010E94570E0E945004C301BE01EA
:100CC0006F5F7F4F0E94270AC4016CE373E00E94AC
:100CD0007E0F49815A816B817C81C40125E030E01F
:100CE0000E946510C4010E94570E0E945004C40166
:100CF00068E573E00E947E0F69817A818B819C8117
:100D000020E030E040EA50E40E947812AB01BC01E0
:100D1000C40123E030E00E946510C4010E94570E18
:100D20000E945004C40166E873E00E947E0F60E0F8
:100D300070E080E89FE329813A814B815C810E94C9
:100D4000E41020E030E040E85FE30E947B109B016C
:100D5000AC016DEC7CEC80EB91E40E94E4107B0133
:100D60008C01C401B801A70123E030E00E946510A6
:100D7000C40162EC73E00E9468100E945004C40138
:100D800068EC73E00E947E0FC801B70120E030E0FC
:100D900040E251E40E94E4100E94381220E030EC5E
:100DA00043E755E40E94E4102FE03FEC4BE55BE3A2
:100DB0000E947C109B01AC0160E070E080E89FE342
:100DC0000E94E41023E333E948E853E40E947B10D7
:100DD0005B016C01C401B601A50122E030E00E9474
:100DE0006510C40166EB72E00E94681000D000D06C
:100DF00000D0EDB7FEB73196ADB7BEB712969C9254
:100E00008E92119733822282758264820E945A0ADE
:100E1000E980FA800B811C81EDB7FEB736960FB6DC
:100E2000F894FEBF0FBEEDBFC801B70123E333E363
:100E300043E75FE30E942F12181694F4C801B7012C
:100E400026E636E646E85FE30E94E010882344F495
:100E5000C401B2010E946810C40166EF73E041C092
:100E6000C801B7012DEC3CEC4CE45DE30E94E010BE
:100E7000882354F480EB97E0B2010E94681080EB65
:100E800097E069E274E02DC0C601B50120E030E0D2
:100E90004CE552E40E942F12181654F480EB97E0B0
:100EA000B2010E94681080EB97E060E574E019C021
:100EB000C601B50120E030E040E751E40E94E010B7
:100EC000882354F480EB97E0B2010E94681080EB15
:100ED00097E06FE874E005C080EB97E0BE016B5FC0
:100EE0007F4F0E9468100E9450040894611C711C7E
:100EF000F4E06F16710409F093CE2E960FB6F894B5
:100F0000DEBF0FBECDBFCF91DF911F910F91FF903C
:100F1000EF90DF90CF90BF90AF909F908F907F9099
:100F20006F905F904F903F902F900895CF92DF92F7
:100F3000EF92FF920F931F9300EB17E0C8016DEC47
:100F400074E00E9468100E9450040E942E046B01FD
:100F50007C01C8016BEE74E00E947E0FC801B701EE
:100F6000A6012AE030E00E94570F0E945004C801F9
:100F70006FE075E00E947E0FC701B6010E947F11ED
:100F800020E030E040EA50E40E94781220E030E0B7
:100F900040E85AE30E947812AB01BC01C80122E08C
:100FA00030E00E946510C80163E375E00E9468109C
:100FB0000E945004C80166E375E00E947E0F64EB56
:100FC0007BE281E190E0A70196010E946813C801CD
:100FD000BA01A9012AE030E00E94170FC80165E6B6
:100FE00075E00E9468100E9450041F910F91FF90BD
:100FF000EF90DF90CF900895EF92FF920F931F93A1
:101000000E94DD0A7B018C0180910C068823C9F1C6
:101010008091280690912906A0912A06B0912B066E
:10102000A8019701281B390B4A0B5B0B809108061E
:1010300090910906A0910A06B0910B06281739076E
:101040004A075B07F0F0E0922806F0922906009329
:101050002A0610932B068091260690912706892B4D
:1010600039F481E090E0909327068093260604C02F
:10107000109227061092260682E0609126060E94B2
:10108000E30B1F910F91FF90EF9008950F931F9323
:1010900082E061E00E94A40B8EE060E00E94A40B5D
:1010A00083E00E947F0B85E061E00E94A40B84E056
:1010B00061E00E94A40B83E060E00E94A40B86E044
:1010C00061E00E94A40B8CE061E00E94A40B8CB54F
:1010D00080648CBD8CB580688CBD8AE08EBD2FB7D6
:1010E000F8948CE296E090932C0780932B079093D2
:1010F0002E0780932D0710922F072FBF00EB17E0CC
:10110000C8010E94340AC80169E675E00E946810AF
:101110000E94B703C80169E775E00E947E0FC8010D
:1011200066E070E04AE050E00E94060FC80162E805
:1011300075E00E946810C8010E94570E0E94B70314
:101140000E9496070E94A7050E94CF050E94760480
:10115000C8016FE875E00E946810C80165EA75E093
:101160000E9468100E9450041F910F9108952091D1
:10117000BA073091BB074091BC075091BD07DA0117
:10118000C90180709070A070B87180509040A040EC
:10119000B84131F454FF02C0506F03C05F7001C00A
:1011A0005F712093BA073093BB074093BC075093FD
:1011B000BD076091BA077091BB078091BC07909101
:1011C000BD070E947F1120E030E040E851E30E941B
:1011D00078120895AF92BF92CF92DF92FF920F9351
:1011E0001F93CF93DF938530910518F0AA24BB2479
:1011F00005C058E0A52EB12CA82AB92A00E010E0BD
:1012000043E0C42ED12C38E0F32E84E060E00E944D
:10121000E30B62E070E080E090E00E94EB0ACF2DEB
:10122000D0E0FF24CE018A219B21892B11F0FF24DD
:10123000F39486E06F2D0E94E30BC801880F991F7D
:101240000F2D10E0082B192BD595C795FC2E84E0A7
:1012500061E00E94E30B62E070E080E090E00E94B9
:10126000EB0A0894C108D1088FEFC8168FEFD80693
:1012700061F6C801DF91CF911F910F91FF90DF9030
:10128000CF90BF90AF900895EF92FF920F931F936E
:10129000CF93DF9385E060E00E94E30B61E070E0B4
:1012A00080E090E00E94EB0ACFE1D0E0EE24FF2442
:1012B000870184E060E00E94E30B62E070E080E080
:1012C00090E00E94EB0AEE0CFF1C001F111F83E050
:1012D0000E94370CAA2797FDA095BA2FE82AF92A71
:1012E0000A2B1B2B84E061E00E94E30B62E070E0BC
:1012F00080E090E00E94EB0A21978FEFCF3FD80764
:10130000C1F685E061E00E94E30B61E070E080E0FF
:1013100090E00E94EB0AB701C801DF91CF911F91C5
:101320000F91FF90EF900895CF93DF9385E060E0F9
:101330000E94E30B84E060E00E94E30B61E070E058
:1013400080E090E00E94EB0AC0E0D0E083E00E94E1
:10135000370C892B91F1219683E0C93ED807C1F45F
:101360008FE498E061EC75E00E947E0F8FE498E0D6
:1013700068EE73E04AE050E00E946B0F8FE498E063
:1013800061EF75E00E94681081E090E00E94D41344
:1013900085E061E00E94E30B61E070E080E090E0B6
:1013A0000E94EB0A85E060E00E94E30B61E070E0E0
:1013B00080E090E00E94EB0AC9CFDF91CF910895C1
:1013C00085E061E00E94E30B61E070E080E090E086
:1013D0000E94EB0A0E94940984E061E00E94E30B02
:1013E00062E070E080E090E00E94EB0A84E060E060
:1013F0000E94E30B62E070E080E090E00E94EB0A64
:1014000085E061E00E94E30B61E070E080E090E045
:101410000E94EB0A08950F931F938C010E94E0092C
:10142000C8010E94EA080E9494090E94440960933E
:10143000BA077093BB078093BC079093BD071F91B9
:101440000F9108950E940B0A0E94B70808950F9308
:101450001F938B010E94220AF801608371838283AB
:1014600093831F910F910895FC01A481B581B783E7
:10147000A68380859185892B09F01C920895FC0133
:10148000A681B781AD014F5F5F4F84819581208533
:101490003185820F931F4817590718F020E030E07C
:1014A00007C06C935783468311961C9221E030E06D
:1014B000C90108950F931F93DF93CF93CDB7DEB784
:1014C0000F811885FE013B96D80116968D919C914F
:1014D000179714966D917C911597681B790B189648
:1014E0002D913C911997620F731F49855A859F0171
:1014F0000E94BA009C01F80180859185892B39F4FE
:101500000EC03196D8011796FC93EE931697D8012A
:101510001696ED91FC9117978081882391F7C90168
:10152000CF91DF911F910F9108951F920F920FB6E7
:101530000F9211242F933F938F939F93AF93BF9359
:101540008091C2079091C307A091C407B091C507CD
:101550003091C6070196A11DB11D232F2D5F2D3798
:1015600020F02D570196A11DB11D2093C607809331
:10157000C2079093C307A093C407B093C507809197
:10158000BE079091BF07A091C007B091C107019617
:10159000A11DB11D8093BE079093BF07A093C00704
:1015A000B093C107BF91AF919F918F913F912F91C0
:1015B0000F900FBE0F901F9018958FB7F894209141
:1015C000C2073091C3074091C4075091C5078FBF30
:1015D000B901CA0108959B01AC017FB7F8948091CD
:1015E000BE079091BF07A091C007B091C10766B533
:1015F000A89B05C06F3F19F00196A11DB11D7FBFCB
:10160000BA2FA92F982F8827860F911DA11DB11DD4
:1016100062E0880F991FAA1FBB1F6A95D1F7BC0112
:101620002DC0FFB7F8948091BE079091BF07A0919D
:10163000C007B091C107E6B5A89B05C0EF3F19F000
:101640000196A11DB11DFFBFBA2FA92F982F882782
:101650008E0F911DA11DB11DE2E0880F991FAA1FD9
:10166000BB1FEA95D1F7861B970B885E9340C8F2A3
:10167000215030404040504068517C4F2115310589
:101680004105510571F60895789484B5826084BD52
:1016900084B5816084BD85B5826085BD85B5816076
:1016A00085BDEEE6F0E0808181608083E1E8F0E0D6
:1016B0001082808182608083808181608083E0E805
:1016C000F0E0808181608083E1EBF0E080818460E4
:1016D0008083E0EBF0E0808181608083EAE7F0E0E6
:1016E000808184608083808182608083808181604A
:1016F00080838081806880831092C10008958093E8
:101700000D060895982F8E3008F09E5097708091A6
:101710000D068295880F880F807C892B80937C0032
:1017200080917A00806480937A0080917A0086FDAF
:10173000FCCF2091780040917900942F80E030E038
:10174000282B392BC9010895CF93DF93482F50E000
:10175000CA018C509F4FFC01349140525F4FFA01F7
:101760008491882369F190E0880F991FFC01EE5362
:10177000FF4FA591B491FC01E453FF4FC591D49163
:10178000662351F42FB7F8948C91932F9095892369
:101790008C93888189230BC0623061F42FB7F89451
:1017A0008C91932F909589238C938881832B8883A8
:1017B0002FBF06C09FB7F8948C91832B8C939FBF4B
:1017C000DF91CF910895482F50E0CA01885F9E4F66
:1017D000FC012491CA018C509F4FFC01949140520E
:1017E0005F4FFA013491332309F440C0222351F1B1
:1017F000233071F0243028F42130A1F0223011F58B
:1018000014C02630B1F02730C1F02430D9F404C020
:10181000809180008F7703C0809180008F7D8093BE
:10182000800010C084B58F7702C084B58F7D84BDE1
:1018300009C08091B0008F7703C08091B0008F7D88
:101840008093B000E32FF0E0EE0FFF1FE453FF4F53
:10185000A591B4912FB7F894662321F48C919095BB
:10186000892302C08C91892B8C932FBF0895682FF8
:1018700070E0CB01885F9E4FFC012491CB018C501E
:101880009F4FFC01449160527F4FFB01949199233B
:1018900019F420E030E03CC0222351F1233071F0F4
:1018A000243028F42130A1F0223011F514C0263064
:1018B000B1F02730C1F02430D9F404C08091800009
:1018C0008F7703C0809180008F7D8093800010C04F
:1018D00084B58F7702C084B58F7D84BD09C08091A7
:1018E000B0008F7703C08091B0008F7D8093B000EF
:1018F000892F90E0880F991F8A529F4FFC01A59174
:10190000B4918C9120E030E0842311F021E030E0AC
:10191000C901089508951F920F920FB60F921124D6
:101920002F933F934F938F939F93EF93FF938091C8
:10193000C00082FD1DC04091C60020910708309173
:1019400008082F5F3F4F2F733070809109089091E6
:101950000A082817390771F0E0910708F091080884
:10196000E953F84F4083309308082093070802C0DA
:101970008091C600FF91EF919F918F914F913F9180
:101980002F910F900FBE0F901F901895E0915B085C
:10199000F0915C08E05CFF4F819191912081318151
:1019A000805C9F4F821B930B60E470E00E943313B6
:1019B000892B11F00E948A0C08951F920F920FB686
:1019C0000F9211242F933F938F939F93EF93FF9345
:1019D00020914B0830914C0880914D0890914E0811
:1019E0002817390731F48091C1008F7D8093C100A1
:1019F00014C0E0914D08F0914E08E55FF74F20814B
:101A000080914D0890914E0801968F73907090933D
:101A10004E0880934D082093C600FF91EF919F914F
:101A20008F913F912F910F900FBE0F901F9018959F
:101A3000DC011C96ED91FC911D97E05CFF4F8191BC
:101A4000919120813181805C9F4F821B930B60E4D8
:101A500070E00E9433130895DC011C96ED91FC9117
:101A60001D97E05CFF4F20813181E054F040DF01A1
:101A7000AE5BBF4F8D919C9111972817390719F4D0
:101A80002FEF3FEF07C08D919C91E80FF91F8081E8
:101A9000282F30E0C9010895DC011C96ED91FC91DE
:101AA0001D97E05CFF4F20813181E054F040DF0161
:101AB000AE5BBF4F8D919C9111972817390719F490
:101AC0002FEF3FEF10C08D919C911197E80FF91FF8
:101AD00020818D919C91119701968F739070119632
:101AE0009C938E9330E0C9010895DC0191968C910E
:101AF0009197882339F05496ED91FC915597808108
:101B000086FFF9CF91961C920895CF93DF93EC0155
:101B1000EE85FF85E05CFF4F20813181E054F0408D
:101B20002F5F3F4F2F733070DF01AE5BBF4F8D9142
:101B30009C91119728173907D1F3E05CFF4F808102
:101B40009181E054F040E80FF91F6083EE85FF8536
:101B5000E05CFF4F31832083EE89FF89208181E0A3
:101B600090E00F8C02C0880F991F0A94E2F7282B8F
:101B7000208381E089A3EC89FD8980818064808352
:101B800081E090E0DF91CF91089510925208109279
:101B9000510888EE93E0A0E0B0E080935308909362
:101BA0005408A0935508B09356088AE196E09093A4
:101BB000500880934F0887EC97E090935C088093DF
:101BC0005B088BE098E090935E0880935D0885EC5D
:101BD00090E09093600880935F0884EC90E090938D
:101BE00062088093610880EC90E090936408809391
:101BF000630881EC90E0909366088093650882EC1E
:101C000090E0909368088093670886EC90E090934A
:101C10006A088093690884E080936B0883E080936E
:101C20006C0887E080936D0885E080936E0881E002
:101C300080936F0808950895CF93DF930E94440B1B
:101C40000E941B0E0E944608C6ECDCE00E94FC07C6
:101C50002097E1F30E94C60CF9CFCF92DF92EF926A
:101C6000FF920F931F93CF93DF937C016B018A0147
:101C7000C0E0D0E00FC0D6016D916D01D701ED91AC
:101C8000FC910190F081E02DC7010995C80FD91F83
:101C9000015010400115110571F7CE01DF91CF9170
:101CA0001F910F91FF90EF90DF90CF900895EF92EA
:101CB000FF920F931F938C01DC01ED91FC91019039
:101CC000F081E02D6DE009957C01D801ED91FC914A
:101CD0000190F081E02DC8016AE009959C012E0D6C
:101CE0003F1DC9011F910F91FF90EF900895CF9371
:101CF000DF93EC016115710519F420E030E00FC0AD
:101D0000DB010D900020E9F71197A61BB70BE881C6
:101D1000F9810280F381E02DAD0109959C01C90193
:101D2000DF91CF9108954F925F927F928F929F9211
:101D3000AF92BF92CF92DF92EF92FF920F931F93D9
:101D4000DF93CF93CDB7DEB7A1970FB6F894DEBF80
:101D50000FBECDBF2C01742ECB01223008F42AE037
:101D600019A231E2C32ED12CCC0EDD1E822E992475
:101D7000AA24BB24672D752FA50194010E94461348
:101D800079018A01C801B701A50194010E941413C9
:101D9000472D461B0894C108D1084A3014F4405D11
:101DA00001C0495CF6014083E114F104010511050D
:101DB00021F07E2C5F2DC801DDCFC201B6010E944B
:101DC000770EA1960FB6F894DEBF0FBECDBFCF91B0
:101DD000DF911F910F91FF90EF90DF90CF90BF9018
:101DE000AF909F908F907F905F904F900895DC010F
:101DF0002115310541F4ED91FC910190F081E02D28
:101E0000642F099508950E94930E0895EF92FF9212
:101E10000F931F939A017B0100E010E0B801A70126
:101E20000E94F70E1F910F91FF90EF900895CF92AF
:101E3000DF92EF92FF920F931F93CF93DF93EC010A
:101E40006A017B012115310541F4E881F981019096
:101E5000F081E02D642F09951FC02A303105D1F49F
:101E600077FF17C0E881F9810190F081E02D6DE2E4
:101E700009958C0144275527BA014C195D096E0953
:101E80007F09CE012AE00E94930E9801280F391F86
:101E900004C02AE00E94930E9C01C901DF91CF91FA
:101EA0001F910F91FF90EF90DF90CF900895EF92E8
:101EB000FF920F931F937C010E94170F8C01C701A3
:101EC0000E94570E9C01200F311FC9011F910F91D5
:101ED000FF90EF900895EF92FF920F931F937B0175
:101EE0009A010027F7FC0095102FB801A7010E9466
:101EF000170F1F910F91FF90EF9008950E94770E9A
:101F000008957F928F929F92AF92BF92CF92DF926D
:101F1000EF92FF920F931F93CF93DF934C017A01BF
:101F20008B01722ECB01BA01A80197010E94DB122E
:101F3000882321F0C4016AEF75E021C0C0E0D0E041
:101F400057016801E894D7F8C601B5012FEF3FEFBC
:101F50004FE75FE70E94DB12882351F4C601B50109
:101F60002FEF3FEF4FE75FE70E94E010181614F0E5
:101F7000C1E0D0E0219739F0C4016EEF75E00E9416
:101F8000770EEC0193C0C801B7012FEF3FEF4FE789
:101F90005FE40E942F12181654F0C801B7012FEF0A
:101FA0003FEF4FE75FEC0E94E010882324F4C40168
:101FB00062E076E0E4CFC801B70120E030E040E025
:101FC00050E00E94E01087FD03C0C0E0D0E00EC0EA
:101FD000D401ED91FC910190F081E02DC4016DE2FE
:101FE0000995EC0117FB109517F9109520E030E0EA
:101FF00040E05FE3DD240BC0CA01B90120E030E01E
:1020000040E251E40E94E4109B01AC01D394D71448
:1020100098F3C801B7010E947C105B016C010E941B
:1020200051117B018C01C401B801A7012AE030E005
:102030000E94F70EC80FD91F772039F0C40166E05F
:1020400076E00E94770EC80FD91FC801B7010E9421
:102050007D119B01AC01C601B5010E947B1024C01B
:1020600020E030E040E251E40E9478127B018C01D4
:102070000E944C115B016C01CC24B7FCC094DC2C99
:10208000C401B601A5012AE030E00E94170FC80F75
:10209000D91FC601B5010E947F119B01AC01C80187
:1020A000B7010E947B107A947720D1F6CE01DF91A0
:1020B000CF911F910F91FF90EF90DF90CF90BF9045
:1020C000AF909F908F907F9008950E94810F089508
:1020D000EF92FF920F931F937C010E94770E8C0169
:1020E000C7010E94570E080F191FC8011F910F91B9
:1020F000FF90EF9008955058BB27AA270ED075C1C6
:1021000066D130F06BD120F031F49F3F11F41EF412
:102110005BC10EF4E095E7FB51C1E92F77D180F365
:10212000BA17620773078407950718F071F49EF5D4
:102130008FC10EF4E0950B2EBA2FA02D0B01B90123
:1021400090010C01CA01A0011124FF27591B99F02D
:10215000593F50F4503E68F11A16F040A22F232F39
:10216000342F4427585FF3CF469537952795A79589
:10217000F0405395C9F77EF41F16BA0B620B730B30
:10218000840BBAF09150A1F0FF0FBB1F661F771FA1
:10219000881FC2F70EC0BA0F621F731F841F48F456
:1021A000879577956795B795F7959E3F08F0B3CFDC
:1021B0009395880F08F09927EE0F979587950895C6
:1021C000D9D008F481E008950CD00FC107D140F0B8
:1021D000FED030F021F45F3F19F0F0C0511139C149
:1021E000F3C014D198F39923C9F35523B1F3951B88
:1021F000550BBB27AA2762177307840738F09F5F28
:102200005F4F220F331F441FAA1FA9F333D00E2E96
:102210003AF0E0E830D091505040E695001CCAF703
:1022200029D0FE2F27D0660F771F881FBB1F2617C8
:1022300037074807AB07B0E809F0BB0B802DBF019B
:10224000FF2793585F4F2AF09E3F510568F0B6C0B4
:1022500000C15F3FECF3983EDCF386957795679578
:10226000B795F7959F5FC9F7880F911D969587954C
:1022700097F90895E1E0660F771F881FBB1F62176B
:1022800073078407BA0720F0621B730B840BBA0B29
:10229000EE1F88F7E095089504D06894B111D9C075
:1022A0000895BCD088F09F5790F0B92F9927B75167
:1022B000A0F0D1F0660F771F881F991F1AF0BA950A
:1022C000C9F712C0B13081F0C3D0B1E00895C0C0E9
:1022D000672F782F8827B85F39F0B93FCCF3869500
:1022E00077956795B395D9F73EF49095809570955D
:1022F00061957F4F8F4F9F4F0895E89409C097FBDA
:102300003EF490958095709561957F4F8F4F9F4FCC
:102310009923A9F0F92F96E9BB279395F695879510
:1023200077956795B795F111F8CFFAF4BB0F11F4D3
:1023300060FF1BC06F5F7F4F8F4F9F4F16C088237A
:1023400011F096E911C0772321F09EE8872F762FB0
:1023500005C0662371F096E8862F70E060E02AF0F1
:102360009A95660F771F881FDAF7880F96958795DD
:1023700097F90895990F0008550FAA0BE0E8FEEFB2
:1023800016161706E807F907C0F012161306E40739
:10239000F50798F0621B730B840B950B39F40A2632
:1023A00061F0232B242B252B21F408950A2609F410
:1023B000A140A6958FEF811D811D089597F99F6714
:1023C00080E870E060E008959FEF80EC08950024BD
:1023D0000A941616170618060906089500240A948A
:1023E00012161306140605060895092E0394000C10
:1023F00011F4882352F0BB0F40F4BF2B11F460FF9F
:1024000004C06F5F7F4F8F4F9F4F089557FD9058C7
:10241000440F551F59F05F3F71F04795880F97FBA8
:10242000991F61F09F3F79F0879508951216130662
:102430001406551FF2CF4695F1DF08C01616170691
:102440001806991FF1CF86957105610508940895C6
:10245000E894BB2766277727CB0197F908958ADF91
:1024600008F48FEF08950EF0AAC0AECF6894A6CFFF
:10247000D5DFC8F39923D1F3C6F3DF93CF931F932E
:102480000F93FF92C92FDD2788232AF02197660F2B
:10249000771F881FDAF720E030E040E85FEB9FE32A
:1024A000883920F0803E30F021968F7725DEE8E6EF
:1024B000F0E003C021DEE5E9F0E091D08B01BE0140
:1024C000EC01FB2E6F5771097595771F880B990BDF
:1024D00016DF28E132E741E35FE316D0AF2D980124
:1024E000AE01FF900F911F91CF91DF9116DE7DCF4E
:1024F0000BD07BCF6CDF28F071DF18F0952309F04B
:102500005DCF62CF1124A5CF81DFA0F3959FD1F3DA
:10251000950F50E0551F629FF001729FBB27F00D91
:10252000B11D639FAA27F00DB11DAA1F649F6627E6
:10253000B00DA11D661F829F2227B00DA11D621F35
:10254000739FB00DA11D621F839FA00D611D221FEF
:10255000749F3327A00D611D231F849F600D211DD3
:10256000822F762F6A2F11249F5750408AF0E1F076
:1025700088234AF0EE0FFF1FBB1F661F771F881FBF
:1025800091505040A9F79E3F510570F017CF61CF91
:102590005F3FECF3983EDCF3869577956795B795AA
:1025A000F795E7959F5FC1F7FE2B880F911D9695D4
:1025B000879597F90895DEDE880B990B08959F3F64
:1025C00049F0915028F4869577956795B7959F5F68
:1025D00080389F4F880F9695879597F90895DF93D8
:1025E000CF931F930F93FF92EF92DF927B018C01A9
:1025F000689405C0DA2EEF0187DFFE01E894A5910B
:102600002591359145915591AEF3EF0186DDFE019F
:102610009701A801DA9479F7DF90EF90FF900F917E
:102620001F91CF91DF910895629FD001739FF001B8
:10263000829FE00DF11D649FE00DF11D929FF00D52
:10264000839FF00D749FF00D659FF00D9927729F89
:10265000B00DE11DF91F639FB00DE11DF91FBD0114
:10266000CF011124089597FB092E07260AD077FD84
:1026700004D049D006D000201AF4709561957F4FA0
:102680000895F6F7909581959F4F0895A1E21A2E2F
:10269000AA1BBB1BFD010DC0AA1FBB1FEE1FFF1F06
:1026A000A217B307E407F50720F0A21BB30BE40B56
:1026B000F50B661F771F881F991F1A9469F760959D
:1026C0007095809590959B01AC01BD01CF01089557
:1026D00097FB092E05260ED057FD04D0D7DF0AD070
:1026E000001C38F450954095309521953F4F4F4F41
:1026F0005F4F0895F6F790958095709561957F4F9F
:102700008F4F9F4F0895AA1BBB1B51E107C0AA1F03
:10271000BB1FA617B70710F0A61BB70B881F991F82
:102720005A95A9F780959095BC01CD010895EE0FBB
:10273000FF1F0590F491E02D09942F923F924F9244
:102740005F926F927F928F929F92AF92BF92CF9241
:10275000DF92EF92FF920F931F93CF93DF93CDB74A
:10276000DEB7CA1BDB0B0FB6F894DEBF0FBECDBFC2
:1027700009942A88398848885F846E847D848C8493
:102780009B84AA84B984C884DF80EE80FD800C819C
:102790001B81AA81B981CE0FD11D0FB6F894DEBF7F
:0C27A0000FBECDBFED010895F894FFCFEF
:1027AC000D0A2A2A2050656C746965722043757273
:1027BC0072656E742053656E736520546573742056
:1027CC002A2A00202A204F66662043757272656E95
:1027DC00743A204144435B25645D2C202564206DB4
:1027EC00413A20002C2063757272656E7420616210
:1027FC006F76652000206D4100202A204F6E20430B
:10280C00757272656E7420284D6178293A204144A6
:10281C00435B25645D2C202564206D413A2000200B
:10282C00202D3E207468697320636F756C64206280
:10283C0065204F4B206966207468652061626F7655
:10284C006520616E642062656C6F772074657374AB
:10285C007320706173733B0020202D3E20746865DB
:10286C00206D61782076616C7565206F66207468C8
:10287C0065204144432069732031303234202831A3
:10288C00302062697420707265636973696F6E2998
:10289C003B0020202D3E2061207265616C2070650C
:1028AC006C74696572206465766963652073617404
:1028BC0075726174657320746865206375727265D6
:1028CC006E7420414443206174207374617274757A
:1028DC00702E2E2E00202A204F6E204375727265AA
:1028EC006E7420284D696E293A204144435B25645F
:1028FC005D2C202564206D413A20002C20637572DC
:10290C0072656E742062656C6F7720005041535372
:10291C00004641494C000D0A2A2A20496E74657202
:10292C006E616C2054656D70657261747572652092
:10293C0054657374202A2A00202A20496E7465720B
:10294C006E616C204469652054656D7065726174AC
:10295C007572653A20002043002020204E4F5445CC
:10296C003A20546865206163637572616379206FE6
:10297C006620746869732074657374206973206EA3
:10298C006F7420636C6561722E000D0A2A2A204C2C
:10299C0054433234303420616E6420546865726D57
:1029AC006973746F7220546573742E202A2A002068
:1029BC002A2054657374696E67206368616E6E6556
:1029CC006C202564002020202A205261772041446D
:1029DC00432056616C75653A203078002020202AFF
:1029EC0020526174696F20746F2052656620566F97
:1029FC006C746167653A20002020202A20566F6C89
:102A0C007461676520617420414443206173737560
:102A1C006D696E6720352E3056205265666572657D
:102A2C006E63653A20002020202A20556E63616C6D
:102A3C006962726174656420546865726D6973743F
:102A4C006F7220526573697374616E6365202832EE
:102A5C00322E316B206F686D206669786564293A77
:102A6C0020006B206F686D002020202A20556E639B
:102A7C00616C696272617465642054656D703A2092
:102A8C0000202A204368616E6E656C205465737457
:102A9C002025643A200020202D3E2053656E736F54
:102AAC0072206170706561727320646973636F6EFC
:102ABC006E65637465642C20636972637569742038
:102ACC006973206F70656E210020202D3E205365A8
:102ADC006E736F7220617070656172732073686FB2
:102AEC007274656420746F2067726F756E64210058
:102AFC0020202D3E2054656D70207365656D73200C
:102B0C0076657279206869676820666F72207465D3
:102B1C007374696E6720656E7669726F6E6D656E23
:102B2C0074202861626F766520353520432900209A
:102B3C00202D3E2054656D70207365656D73207675
:102B4C00657279206C6F7720666F72207465737470
:102B5C00696E6720656E7669726F6E6D656E742036
:102B6C002862656C6F77203135204329000D0A2AC5
:102B7C002A2042616E642047617020566F6C74612C
:102B8C0067652054657374202A2A00202A2041444A
:102B9C004320526561646F757420666F7220312E0C
:102BAC003156205265666572656E63653A20002069
:102BBC002A205265666572656E636520566F6C746B
:102BCC0061676520286966205643433D3D3556298B
:102BDC003A2000205600202A2043616C63756C61FA
:102BEC007465642056434320666F72206578616378
:102BFC00746C7920312E3156205265666572656E83
:102C0C0063653A2000206D560050656C74696572DE
:102C1C00504F53542E696E6F0056657273696F6E08
:102C2C0020002C2030362F30362F32303137000D2B
:102C3C000A53656C662D5465737420436F6D706C0C
:102C4C006574652E000D0A52656D656D6265723A8C
:102C5C00204354524C2D4320746F206578697421A5
:102C6C0000492F4F206572726F722C20456E6420C4
:102C7C006F6620436F6E76657273696F6E206E6F30
:102C8C007420726561636865642061667465722086
:102C9C000020636865636B732E006E616E00696E55
:102CAC0066006F7666002E00F40100000101000042
:102CBC0000003F0A2D0E00000000850D2D0E180D92
:062CCC004C0D2C0D750DEE
:00000001FF
