:100000000C9462000C948A000C948A000C948A0070
:100010000C948A000C948A000C948A000C948A0038
:100020000C948A000C948A000C948A000C948A0028
:100030000C948A000C948A000C948A000C948A0018
:100040000C94EB080C9433030C948A000C948A00F3
:100050000C948A000C948A000C948A000C948A00F8
:100060000C948A000C948A000000000024002700F1
:100070002A0000000000250028002B0000000000DE
:1000800023002600290004040404040404040202DA
:100090000202020203030303030301020408102007
:1000A0004080010204081020010204081020000012
:1000B0000007000201000003040600000000000029
:1000C00000006F0311241FBECFEFD8E0DEBFCDBF0D
:1000D00013E0A0E0B1E0E0E5FBE102C005900D9285
:1000E000A834B107D9F714E0A8E4B3E001C01D9229
:1000F000A53EB107E1F710E0C4ECD0E004C02297C0
:10010000FE010E946B0DC23CD107C9F70E94DC08BA
:100110000C94A60D0C940000AEE0B0E0E2E9F0E033
:100120000C947D0D8C0177FF02C060E070E8615097
:1001300070407E836D831A83098386E08C83CE01B1
:100140000196BA01A9010E94B6002D813E8137FDBA
:1001500009C0EF81F8852E173F070CF4F901E00F75
:10016000F11F10822E96E4E00C94990DABE0B0E004
:10017000ECEBF0E00C946F0D3C012B015A01FC01FB
:1001800017821682838181FD03C06FEF7FEFC6C1A6
:100190009AE0892E1E010894211C311CF301238151
:1001A000F20123FD859123FF81912F01882309F41A
:1001B000B2C1853239F423FD859123FF81912F014E
:1001C000853229F490E0B3010E94A902E7CF982F6D
:1001D000FF24EE249924FFE1FF15D0F09B3269F053
:1001E0009C3228F4903259F0933291F40EC09D3233
:1001F00049F0903369F441E024C052E0F52A84E0EC
:10020000F82A28C098E0F92A25C0E0E1FE2A22C099
:10021000F7FC29C0892F80538A3070F4F6FE05C0A0
:10022000989C902C1124980E15C0E89CE02C112469
:10023000E80EF0E2FF2A0EC09E3229F4F6FC6BC1F4
:1002400040E4F42A07C09C3619F450E8F52A02C0AD
:10025000983649F4F20123FD959123FF91912F01E6
:10026000992309F0B8CF892F8554833018F0805234
:10027000833038F444E050E0A40EB51E5FE35983A8
:100280000FC0933631F0933779F0933509F056C0AB
:1002900020C0F5018081898342E050E0A40EB51EA4
:1002A000610101E010E012C0F501C080D180F6FCD0
:1002B00003C06FEF7FEF02C0692D70E042E050E0B5
:1002C000A40EB51EC6010E949E028C015FE7F522B6
:1002D00014C0F501C080D180F6FC03C06FEF7FEF42
:1002E00002C0692D70E042E050E0A40EB51EC601C8
:1002F0000E9493028C0150E8F52AF3FE07C01AC051
:1003000080E290E0B3010E94A902EA948E2D90E071
:1003100008171907A8F30EC0F601F7FC8591F7FE40
:1003200081916F0190E0B3010E94A902E110EA946B
:10033000015010400115110579F7EAC0943611F00B
:10034000993669F5F7FE08C0F501208131814281B7
:10035000538184E090E00AC0F501808191819C0185
:10036000442737FD4095542F82E090E0A80EB91E37
:100370009FE6F92257FF09C0509540953095219589
:100380003F4F4F4F5F4FE0E8FE2ACA01B901A1017C
:100390002AE030E00E94D502D82ED21840C095370E
:1003A00029F41F2D1F7E2AE030E01DC01F2D197F6C
:1003B0009F3661F0903720F4983509F0ACC00FC03B
:1003C000903739F0983709F0A6C004C028E030E033
:1003D0000AC0106114FD146020E130E004C014FD77
:1003E000166020E132E017FF08C0F50160817181DD
:1003F0008281938144E050E008C0F50180819181C1
:10040000BC0180E090E042E050E0A40EB51EA101E6
:100410000E94D502D82ED2188FE7F82EF122F6FED0
:100420000BC05EEFF522D91438F4F4FE07C0F2FCDD
:1004300005C08FEEF82202C01D2D01C0192DF4FE5B
:100440000DC0FE01ED0DF11D8081803319F499EE90
:10045000F92208C01F5FF2FE05C003C08F2D867809
:1004600009F01F5F0F2DF3FC14C0F0FE0FC01E1526
:1004700010F09D2C0BC09D2C9E0C911A1E2D06C0B9
:1004800080E290E0B3010E94A9021F5F1E15C0F335
:1004900004C01E1510F4E11A01C0EE2404FF0FC0C1
:1004A00080E390E0B3010E94A90202FF1DC001FD9C
:1004B00003C088E790E00EC088E590E00BC0802F75
:1004C000867891F001FF02C08BE201C080E2F7FC68
:1004D0008DE290E0B3010E94A90206C080E390E0A3
:1004E000B3010E94A9029A94D914C0F3DA94F101DD
:1004F000ED0DF11D808190E0B3010E94A902DD2085
:10050000A9F706C080E290E0B3010E94A902EA9434
:10051000EE20C1F743CEF30166817781CB012B96A4
:10052000E2E10C948B0DFC010590615070400110CC
:10053000D8F7809590958E0F9F1F0895FC0161500C
:10054000704001900110D8F7809590958E0F9F1FF5
:1005500008950F931F93CF93DF938C01EB018B8151
:1005600081FF1BC082FF0DC02E813F818C819D8148
:100570002817390764F4E881F9810193F983E88346
:1005800006C0E885F985802F0995892B31F48E8185
:100590009F8101969F838E8302C00FEF1FEFC801DA
:1005A000DF91CF911F910F910895FA01AA2728306A
:1005B00051F1203181F1E8946F936E7F6E5F7F4F30
:1005C0008F4F9F4FAF4FB1E03ED0B4E03CD0670FAC
:1005D000781F891F9A1FA11D680F791F8A1F911DFF
:1005E000A11D6A0F711D811D911DA11D20D009F44F
:1005F00068943F912AE0269F11243019305D319391
:10060000DEF6CF010895462F4770405D4193B3E079
:100610000FD0C9F7F6CF462F4F70405D4A3318F020
:10062000495D31FD4052419302D0A9F7EACFB4E0D1
:10063000A6959795879577956795BA95C9F7009789
:100640006105710508959B01AC010A2E069457952A
:10065000479537952795BA95C9F7620F731F841F81
:10066000951FA01D08951F920F920FB60F9211248F
:100670002F938F939F93EF93FF938EB58F3F19F531
:100680008FB7F894909151048FBF9923E1F0E091D6
:100690004F04F09150042191F0935004E0934F04E3
:1006A000ED54F44031F48EE493E090935004809341
:1006B0004F049FB7F8948091510481508093510466
:1006C0009FBF2EBD02C086E08EBDFF91EF919F912E
:1006D0008F912F910F900FBE0F901F901895109231
:1006E000D5041092D404E4EDF4E084E493E0929312
:1006F000829382E594E09093D7048093D60480E8B7
:1007000090E09093DB048093DA04CF010E948D0A7D
:1007100008951F934091D8045091D9048091D60434
:100720009091D704481B590B8FB7F894209151042E
:100730008FBF30E08FEF90E0841B950B28173907AF
:100740006CF520E030E0D901AE5ABB4F415050402B
:100750006EE473E020C0E0914D04F0914E048C9162
:100760008083E0914D04F0914E04CF010196909367
:100770004E0480934D048D54944011F47283618330
:100780009FB7F894809151048F5F809351049FBF6D
:100790002F5F3F4F119624173507ECF282ED94E05E
:1007A0000E948D0A1F91089588EC80937C008091AF
:1007B0007A00806880937A0064E170E080E090E0E5
:1007C0000E94410980917A00806480937A00809130
:1007D0007A0086FDFCCF609178007091790080E00E
:1007E00090E00E94F00B2EEA37E242EA53E40E94C6
:1007F000EE0A26EF38E24CE95FE30E94570B0895BA
:100800008EE480937C0062E070E080E090E00E94E3
:10081000410980917A00806480937A0080917A0007
:1008200086FDFCCF8091780060917900362F20E022
:1008300090E0282B392B442737FD4095542FB901E0
:10084000CA010895CF93DF93CFEFD0E006C061E0F7
:1008500070E080E090E00E9441098FB7F8944091E9
:1008600051048FBF50E08091D8049091D904209119
:10087000D6043091D704821B930B9E01281B390BA1
:100880004217530720F70E948903DF91CF91089503
:1008900082ED94E060E071E00E94C9080E942204A9
:1008A0000895EF92FF920F931F93DF93CF93CDB7ED
:1008B000DEB72A970FB6F894DEBF0FBECDBF82ED2C
:1008C00094E06CE271E00E94C9080E942204DE01FB
:1008D0001196E0EEF1E085E001900D928150E1F794
:1008E000DE011696E5EEF1E085E001900D92815073
:1008F000E1F78EE00E94D8098C018DB79EB708976A
:100900000FB6F8949EBF0FBE8DBFEDB7FEB7319600
:1009100022EDE22E24E0F22EADB7BEB71296FC9285
:10092000EE9211978DE491E0938382831583048383
:10093000178306830E94B30A8DB79EB708960FB639
:10094000F8949EBF0FBE8DBF0D37110528F4C70167
:10095000BE016F5F7F4F15C0C701BE016A5F7F4F49
:100960000E94DF07C7016EE671E00E94DF07C70142
:100970006DE770E04AE050E00E947A07C7016FE738
:1009800071E00E94C9080E94220482E061E00E9496
:10099000390A64E670E080E090E00E9441098EE050
:1009A0000E94D8098C01ADB7BEB718970FB6F8945E
:1009B000BEBF0FBEADBFEDB7FEB7319692EDE92ECB
:1009C00094E0F92E1296FC92EE92119783E891E052
:1009D0009383828315830483178306830E94B30A5B
:1009E0008DB79EB708960FB6F8949EBF0FBE8DBF09
:1009F00093E00C3F190728F4C701BE016F5F7F4FDA
:100A000015C0C701BE016A5F7F4F0E94DF07C701A3
:100A10006EE671E00E94DF07C7016CEF73E04AE009
:100A200050E00E947A07C7016FE771E00E94C90891
:100A30000E942204ADB7BEB718970FB6F894BEBF98
:100A40000FBEADBFEDB7FEB7319682EDE82E84E064
:100A5000F82E1296FC92EE92119789EA91E0938318
:100A6000828315830483178306830E94B30A8DB79C
:100A70009EB708960FB6F8949EBF0FBE8DBF055F58
:100A8000114028F0C701BE016F5F7F4F15C0C7013D
:100A9000BE016A5F7F4F0E94DF07C7016FEC71E004
:100AA0000E94DF07C70164EF71E04AE050E00E9456
:100AB0007A07C7016FE771E00E94C9080E9422040B
:100AC0002A960FB6F894DEBF0FBECDBFCF91DF914F
:100AD0001F910F91FF90EF9008950F931F9302EDD8
:100AE00014E0C8016AEE71E00E94C9080E94220465
:100AF000C8016AE072E00E94DF070E94D403AB01E4
:100B0000BC01C80122E030E00E94C608C80164E2CE
:100B100072E00E94C908C80167E272E00E94C90839
:100B20000E9422041F910F910895CF92DF92EF92BD
:100B3000FF920F931F9302ED14E0C80168E572E085
:100B40000E94C9080E9422040E9400046B017C01DB
:100B5000C80164E772E00E94DF07C801B701A6017F
:100B60002AE030E00E94CB070E942204C80168E915
:100B700072E00E94DF07C701B6010E94F20B20E07D
:100B800030E040EA50E40E94A60C20E030E040E86B
:100B90005AE30E94A60CAB01BC01C80122E030E080
:100BA0000E94C608C8016CEB72E00E94C9080E944E
:100BB0002204C8016FEB72E00E94DF0764EB7BE266
:100BC00081E190E0A70196010E944E0DC801BA0193
:100BD000A9012AE030E00E948B07C8016EEE72E0A6
:100BE0000E94C9080E9422041F910F91FF90EF906C
:100BF000DF90CF900895EF92FF920F931F930E9482
:100C000033097B018C0180913E038823C9F18091D7
:100C10004A0390914B03A0914C03B0914D03A8015E
:100C20009701281B390B4A0B5B0B80913A0390917B
:100C30003B03A0913C03B0913D03281739074A07B5
:100C40005B07F0F0E0924A03F0924B0300934C03F1
:100C500010934D038091480390914903892B39F4F7
:100C600081E090E0909349038093480304C0109280
:100C700049031092480382E0609148030E94390AB8
:100C80001F910F91FF90EF9008950F931F9382E0B3
:100C900061E00E94FA098EE060E00E94FA0983E0B8
:100CA0000E94D5098CE061E00E94FA098CB580644D
:100CB0008CBD8CB580688CBD8AE08EBD2FB7F89452
:100CC0008EE493E090934E0480934D0490935004EF
:100CD00080934F04109251042FBF02ED14E0C8011D
:100CE0000E948D0AC80162EF72E00E94C9080E944A
:100CF0008903C80162E073E00E94DF07C80165E074
:100D000070E04AE050E00E947A07C8016BE073E0AF
:100D10000E94C908C8010E94CB060E9489030E9454
:100D200095050E946D050E9448040E945104C80167
:100D300068E173E00E94C9080E9422041F910F918C
:100D40000895CF92DF92EF92FF920F931F93CF936C
:100D5000DF937C016B018A01C0E0D0E00FC0D601B7
:100D60006D916D01D701ED91FC910190F081E02D25
:100D7000C7010995C80FD91F015010400115110571
:100D800071F7CE01DF91CF911F910F91FF90EF90FE
:100D9000DF90CF900895EF92FF920F931F938C01F5
:100DA000DC01ED91FC910190F081E02D6DE0099561
:100DB0007C01D801ED91FC910190F081E02DC801FA
:100DC0006AE009959C012E0D3F1DC9011F910F91ED
:100DD000FF90EF900895CF93DF93EC0161157105BB
:100DE00019F420E030E00FC0DB010D900020E9F79E
:100DF0001197A61BB70BE881F9810280F381E02DE2
:100E0000AD0109959C01C901DF91CF9108954F92E1
:100E10005F927F928F929F92AF92BF92CF92DF921A
:100E2000EF92FF920F931F93DF93CF93CDB7DEB76F
:100E3000A1970FB6F894DEBF0FBECDBF2C01742E64
:100E4000CB01223008F42AE019A231E2C32ED12CC2
:100E5000CC0EDD1E822E9924AA24BB24672D752F6B
:100E6000A50194010E942C0D79018A01C801B701E6
:100E7000A50194010E940D0D472D461B0894C10841
:100E8000D1084A3014F4405D01C0495CF60140834A
:100E9000E114F1040105110521F07E2C5F2DC8013C
:100EA000DDCFC201B6010E94EB06A1960FB6F89401
:100EB000DEBF0FBECDBFCF91DF911F910F91FF908D
:100EC000EF90DF90CF90BF90AF909F908F907F90EA
:100ED0005F904F900895DC012115310541F4ED91AB
:100EE000FC910190F081E02D642F099508950E94F6
:100EF00007070895EF92FF920F931F939A017B01CA
:100F000000E010E0B801A7010E946B071F910F914C
:100F1000FF90EF900895CF92DF92EF92FF920F93A0
:100F20001F93CF93DF93EC016A017B0121153105FB
:100F300041F4E881F9810190F081E02D642F099559
:100F40001FC02A303105D1F477FF17C0E881F9813D
:100F50000190F081E02D6DE209958C014427552721
:100F6000BA014C195D096E097F09CE012AE00E9481
:100F700007079801280F391F04C02AE00E940707BD
:100F80009C01C901DF91CF911F910F91FF90EF90CC
:100F9000DF90CF900895EF92FF920F931F937C0103
:100FA0000E948B078C01C7010E94CB069C01200F79
:100FB000311FC9011F910F91FF90EF9008950E947A
:100FC000EB0608957F928F929F92AF92BF92CF923D
:100FD000DF92EF92FF920F931F93CF93DF934C0119
:100FE0007A018B01722ECB01BA01A80197010E94F0
:100FF000090D882321F0C4016CE273E021C0C0E038
:10100000D0E057016801E894D7F8C601B5012FEF89
:101010003FEF4FE75FE70E94090D882351F4C601B7
:10102000B5012FEF3FEF4FE75FE70E94530B181614
:1010300014F0C1E0D0E0219739F0C40160E373E01F
:101040000E94EB06EC0193C0C801B7012FEF3FEF00
:101050004FE75FE40E94A20C181654F0C801B701D4
:101060002FEF3FEF4FE75FEC0E94530B882324F4F0
:10107000C40164E373E0E4CFC801B70120E030E0CD
:1010800040E050E00E94530B87FD03C0C0E0D0E079
:101090000EC0D401ED91FC910190F081E02DC401CE
:1010A0006DE20995EC0117FB109517F9109520E0FA
:1010B00030E040E05FE3DD240BC0CA01B90120E06D
:1010C00030E040E251E40E94570B9B01AC01D39405
:1010D000D71498F3C801B7010E94EF0A5B016C01B5
:1010E0000E94C40B7B018C01C401B801A7012AE056
:1010F00030E00E946B07C80FD91F772039F0C40178
:1011000068E373E00E94EB06C80FD91FC801B7015E
:101110000E94F00B9B01AC01C601B5010E94EE0AD2
:1011200024C020E030E040E251E40E94A60C7B01A4
:101130008C010E94BF0B5B016C01CC24B7FCC094F6
:10114000DC2CC401B601A5012AE030E00E948B0727
:10115000C80FD91FC601B5010E94F20B9B01AC015B
:10116000C801B7010E94EE0A7A947720D1F6CE0129
:10117000DF91CF911F910F91FF90EF90DF90CF9073
:10118000BF90AF909F908F907F9008950E94E2074C
:101190000895EF92FF920F931F937C010E94EB063C
:1011A0008C01C7010E94CB06080F191FC8011F91AF
:1011B0000F91FF90EF900895CF93DF930E949A09CB
:1011C0000E944506C0E0D0E00E94FB052097E1F3B5
:1011D0000E940000F9CF1F920F920FB60F921124B8
:1011E0002F933F938F939F93AF93BF938091E0048E
:1011F0009091E104A091E204B091E3043091E40401
:101200000196A11DB11D232F2D5F2D3720F02D57E5
:101210000196A11DB11D2093E4048093E0049093F6
:10122000E104A093E204B093E3048091DC04909184
:10123000DD04A091DE04B091DF040196A11DB11D73
:101240008093DC049093DD04A093DE04B093DF046C
:10125000BF91AF919F918F913F912F910F900FBEB2
:101260000F901F9018958FB7F8942091E00430915B
:10127000E1044091E2045091E3048FBFB901CA0137
:1012800008959B01AC017FB7F8948091DC049091A4
:10129000DD04A091DE04B091DF0466B5A89B05C013
:1012A0006F3F19F00196A11DB11D7FBFBA2FA92F65
:1012B000982F8827860F911DA11DB11D62E0880F10
:1012C000991FAA1FBB1F6A95D1F7BC012DC0FFB79C
:1012D000F8948091DC049091DD04A091DE04B0913B
:1012E000DF04E6B5A89B05C0EF3F19F00196A11DEC
:1012F000B11DFFBFBA2FA92F982F88278E0F911DE0
:10130000A11DB11DE2E0880F991FAA1FBB1FEA951E
:10131000D1F7861B970B885E9340C8F2215030406E
:101320004040504068517C4F211531054105510521
:1013300071F60895789484B5826084BD84B5816027
:1013400084BD85B5826085BD85B5816085BDEEE6CD
:10135000F0E0808181608083E1E8F0E010828081AC
:1013600082608083808181608083E0E8F0E080811A
:1013700081608083E1EBF0E0808184608083E0EB3A
:10138000F0E0808181608083EAE7F0E08081846022
:10139000808380818260808380818160808380817E
:1013A000806880831092C100089580933F03089560
:1013B000982F8E3008F09E50977080913F03829551
:1013C000880F880F807C892B80937C0080917A0025
:1013D000806480937A0080917A0086FDFCCF209112
:1013E000780040917900942F80E030E0282B392B51
:1013F000C9010895CF93DF93482F50E0CA01865664
:101400009F4FFC0134914A575F4FFA018491882322
:1014100069F190E0880F991FFC01E859FF4FA591F1
:10142000B491FC01EE58FF4FC591D491662351F45D
:101430002FB7F8948C91932F909589238C93888162
:1014400089230BC0623061F42FB7F8948C91932FED
:10145000909589238C938881832B88832FBF06C026
:101460009FB7F8948C91832B8C939FBFDF91CF9182
:101470000895482F50E0CA0182559F4FFC012491E6
:10148000CA0186569F4FFC0194914A575F4FFA015B
:101490003491332309F440C0222351F1233071F0F9
:1014A000243028F42130A1F0223011F514C0263068
:1014B000B1F02730C1F02430D9F404C0809180000D
:1014C0008F7703C0809180008F7D8093800010C053
:1014D00084B58F7702C084B58F7D84BD09C08091AB
:1014E000B0008F7703C08091B0008F7D8093B000F3
:1014F000E32FF0E0EE0FFF1FEE58FF4FA591B491E0
:101500002FB7F894662321F48C919095892302C01B
:101510008C91892B8C932FBF0895FC01A481B581F8
:10152000B783A68380859185892B09F01C92089545
:10153000FC01A681B781AD014F5F5F4F848195812A
:1015400020853185820F931F4817590718F020E036
:1015500030E007C06C935783468311961C9221E0BC
:1015600030E0C90108950F931F93DF93CF93CDB758
:10157000DEB70F811885FE013B96D80116968D9136
:101580009C91179714966D917C911597681B790B18
:1015900018962D913C911997620F731F49855A85B2
:1015A0009F010E948C009C01F80180859185892B08
:1015B00039F40EC03196D8011796FC93EE93169726
:1015C000D8011696ED91FC9117978081882391F7A9
:1015D000C901CF91DF911F910F9108955058BB27FA
:1015E000AA270ED075C166D130F06BD120F031F44E
:1015F0009F3F11F41EF45BC10EF4E095E7FB51C16F
:10160000E92F77D180F3BA1762077307840795072C
:1016100018F071F49EF58FC10EF4E0950B2EBA2FE1
:10162000A02D0B01B90190010C01CA01A0011124E8
:10163000FF27591B99F0593F50F4503E68F11A1694
:10164000F040A22F232F342F4427585FF3CF469525
:1016500037952795A795F0405395C9F77EF41F1647
:10166000BA0B620B730B840BBAF09150A1F0FF0F11
:10167000BB1F661F771F881FC2F70EC0BA0F621FFD
:10168000731F841F48F4879577956795B795F795ED
:101690009E3F08F0B3CF9395880F08F09927EE0F7F
:1016A000979587950895D9D008F481E008950CD0D6
:1016B0000FC107D140F0FED030F021F45F3F19F0A8
:1016C000F0C0511139C1F3C014D198F39923C9F373
:1016D0005523B1F3951B550BBB27AA276217730738
:1016E000840738F09F5F5F4F220F331F441FAA1FEC
:1016F000A9F333D00E2E3AF0E0E830D091505040AC
:10170000E695001CCAF729D0FE2F27D0660F771F59
:10171000881FBB1F261737074807AB07B0E809F03B
:10172000BB0B802DBF01FF2793585F4F2AF09E3FD0
:10173000510568F0B6C000C15F3FECF3983EDCF3A2
:10174000869577956795B795F7959F5FC9F7880F49
:10175000911D9695879597F90895E1E0660F771F9B
:10176000881FBB1F621773078407BA0720F0621B2C
:10177000730B840BBA0BEE1F88F7E095089504D025
:101780006894B111D9C00895BCD088F09F5790F0EB
:10179000B92F9927B751A0F0D1F0660F771F881F96
:1017A000991F1AF0BA95C9F712C0B13081F0C3D0B1
:1017B000B1E00895C0C0672F782F8827B85F39F04F
:1017C000B93FCCF3869577956795B395D9F73EF4F5
:1017D00090958095709561957F4F8F4F9F4F08959D
:1017E000E89409C097FB3EF49095809570956195BB
:1017F0007F4F8F4F9F4F9923A9F0F92F96E9BB2771
:101800009395F695879577956795B795F111F8CFEC
:10181000FAF4BB0F11F460FF1BC06F5F7F4F8F4F57
:101820009F4F16C0882311F096E911C0772321F04D
:101830009EE8872F762F05C0662371F096E8862FE5
:1018400070E060E02AF09A95660F771F881FDAF73C
:10185000880F9695879597F90895990F0008550F69
:10186000AA0BE0E8FEEF16161706E807F907C0F026
:1018700012161306E407F50798F0621B730B840B2E
:10188000950B39F40A2661F0232B242B252B21F408
:1018900008950A2609F4A140A6958FEF811D811DA8
:1018A000089597F99F6780E870E060E008959FEFE2
:1018B00080EC089500240A941616170618060906E7
:1018C000089500240A9412161306140605060895B6
:1018D000092E0394000C11F4882352F0BB0F40F43E
:1018E000BF2B11F460FF04C06F5F7F4F8F4F9F4F7E
:1018F000089557FD9058440F551F59F05F3F71F000
:101900004795880F97FB991F61F09F3F79F0879566
:101910000895121613061406551FF2CF4695F1DFEF
:1019200008C0161617061806991FF1CF869571057F
:10193000610508940895E894BB2766277727CB01B3
:1019400097F908958ADF08F48FEF08950BD0C0CF80
:10195000B1DF28F0B6DF18F0952309F0A2CFA7CFAA
:101960001124EACFC6DFA0F3959FD1F3950F50E085
:10197000551F629FF001729FBB27F00DB11D639F41
:10198000AA27F00DB11DAA1F649F6627B00DA11DE7
:10199000661F829F2227B00DA11D621F739FB00D8D
:1019A000A11D621F839FA00D611D221F749F3327FD
:1019B000A00D611D231F849F600D211D822F762F96
:1019C0006A2F11249F5750408AF0E1F088234AF093
:1019D000EE0FFF1FBB1F661F771F881F91505040DF
:1019E000A9F79E3F510570F05CCFA6CF5F3FECF3A7
:1019F000983EDCF3869577956795B795F795E795CB
:101A00009F5FC1F7FE2B880F911D9695879597F9DB
:101A1000089523DF880B990B0895629FD001739F6F
:101A2000F001829FE00DF11D649FE00DF11D929F7A
:101A3000F00D839FF00D749FF00D659FF00D9927B9
:101A4000729FB00DE11DF91F639FB00DE11DF91FDD
:101A5000BD01CF0111240895A1E21A2EAA1BBB1BC0
:101A6000FD010DC0AA1FBB1FEE1FFF1FA217B3076A
:101A7000E407F50720F0A21BB30BE40BF50B661F80
:101A8000771F881F991F1A9469F760957095809544
:101A900090959B01AC01BD01CF01089597FB092EE4
:101AA00005260ED057FD04D0D7DF0AD0001C38F42D
:101AB00050954095309521953F4F4F4F5F4F08957A
:101AC000F6F790958095709561957F4F8F4F9F4F5A
:101AD0000895EE0FFF1F0590F491E02D09942F92C9
:101AE0003F924F925F926F927F928F929F92AF92AE
:101AF000BF92CF92DF92EF92FF920F931F93CF93FB
:101B0000DF93CDB7DEB7CA1BDB0B0FB6F894DEBF91
:101B10000FBECDBF09942A88398848885F846E84B7
:101B20007D848C849B84AA84B984C884DF80EE8001
:101B3000FD800C811B81AA81B981CE0FD11D0FB60A
:101B4000F894DEBF0FBECDBFED010895F894FFCF2E
:101B500054686520546865726D6973746F7220549F
:101B6000657374206973206E6F74207965742069C1
:101B70006D706C656D656E7465642E002A2A205048
:101B8000656C746965722043757272656E7420535A
:101B9000656E73652054657374202A2A00202A20FC
:101BA0004F66662043757272656E743A20414443F5
:101BB0005B25645D2C202564206D413A20002C209B
:101BC00063757272656E742061626F7665200020A5
:101BD0006D4100202A204F6E2043757272656E742D
:101BE00020284D6178293A204144435B25645D2CCF
:101BF000202564206D413A2000202A204F6E20438A
:101C0000757272656E7420284D696E293A204144C0
:101C1000435B25645D2C202564206D413A20002C17
:101C20002063757272656E742062656C6F77200038
:101C300050415353004641494C002A2A20496E74B2
:101C400065726E616C2054656D7065726174757239
:101C5000652054657374202A2A00202A20496E7456
:101C600065726E616C2054656D7065726174757219
:101C7000653A20002043002020204E4F54453A2052
:101C8000546865206163637572616379206F6620B3
:101C9000746869732074657374206973206E6F743F
:101CA00020636C6561722E002A2A2042616E6420D6
:101CB00047617020566F6C7461676520546573745A
:101CC000202A2A00202A2041444320526561646F63
:101CD000757420666F7220312E315620526566650C
:101CE00072656E63653A2000202A2052656665722F
:101CF000656E636520566F6C746167652028696640
:101D0000205643433D3D3556293A200020560020B9
:101D10002A2043616C63756C61746564205643438B
:101D200020666F722065786163746C7920312E3182
:101D300056205265666572656E63653A2000206DB7
:101D4000560050656C74696572504F53542E696E1D
:101D50006F0056657273696F6E20002C2030372F2C
:101D600031342F323031350053656C662D54657334
:101D70007420436F6D706C6574652E006E616E002B
:101D8000696E66006F7666002E00F40100000101A6
:081D900000000000980AA10602
:00000001FF
